:100000000C94A5040C94CD040C94CD040C94EC1821
:100010000C94EC180C94EC180C94CD040C94CD04B6
:100020000C94CD040C94CD040C94CD040C94CD040C
:100030000C94CD040C94CD040C94CD040C94CD04FC
:100040000C94A2180C94CD040C9470180C944A18BB
:100050000C94CD040C94CD040C94CD040C94CD04DC
:100060000C9464190C94CD040000000800020100F7
:100070000003040700000000000000000000000072
:10008000240027002A000EFFFF0703F1F9F9F9F910
:10009000F10307FFFF0EFFFFFFFFE7E30101FFFF93
:1000A000FFFFFFFF0EFFFFE7E3F1F9F9F9793103F5
:1000B00087FFFF0EFFFFE7E3F1F9F9797971038715
:1000C000FFFF0EFFFF7F3F1F8FC7E30101FFFFFF11
:1000D000FF0EFFFF81819999999999193979FFFF4D
:1000E0000EFFFF070339393939393973F7FFFF0E2E
:1000F000FFFFF9F9F9F979391989C1E1FFFF0EFF1D
:10010000FFC78331797979793183C7FFFF0EFFFF0C
:1001100087033179797979310307FFFF12000000F5
:1001200000000000000000000000000000000000CF
:1001300004000000000200001400181CFEFE000075
:100140000000F8FC0E060606060EFCF8001400007F
:1001500000181CFEFE0000000000181CFEFE00003F
:1001600000001400181CFEFE00000000181C0E0603
:10017000060686CEFC78001400181CFEFE00000067
:1001800000181C0E060686868EFC780014FFE7E336
:100190000101FFFFFFFF0703F1F9F9F9F9F1030787
:1001A000FF14FFFFFFE7E30101FFFFFFFFFFE7E3AE
:1001B0000101FFFFFFFF14FFE7E30101FFFFFFFF66
:1001C000E7E3F1F9F9F979310387FF14FFE7E30178
:1001D00001FFFFFFFFE7E3F1F9F97979710387FF89
:1001E000010001000100010002000001000AF8FC0A
:1001F0000E060606060EFCF80A0000181CFEFE009D
:100200000000000A181C0E06060686CEFC780A18A6
:100210001C0E060686868EFC780A80C0E070381CAC
:10022000FEFE00000A7E7E6666666666E6C6860A92
:10023000F8FCC6C6C6C6C6C68C080A0606060686EA
:10024000C6E6763E1E0A387CCE86868686CE7C380A
:100250000A78FCCE86868686CEFCF8040030300014
:100260000100010001000100010001000AF8FC0E7C
:10027000060606060EFCF80AFEFE8686868686CEF2
:10028000FC780AF8FC06060606060E1C180AFEFE96
:1002900006060606060EFCF80AFEFE86868686869A
:1002A0008606060AFEFE86868686868606060AF884
:1002B000FC0E060606868E9C980AFEFE80808080D4
:1002C0008080FEFE060606FEFE06060806060606F8
:1002D0000606FEFE0AFEFEC0C0E070381C0E060ACE
:1002E000FEFE00000000000000000AFEFE1C38F0C8
:1002F000F0381CFEFE0AFEFE1C70C0000000FEFE70
:100300000AF8FC0E060606060EFCF80AFEFE8686B5
:10031000868686CEFC780AF8FC0E060606060EFCDB
:10032000F80AFEFE8686868686CEFC780A78FCCEA3
:1003300086868686860E0C0A06060606FEFE0606DB
:1003400006060AFEFE000000000000FEFE0AFEFE99
:10035000000000000000FEFE0AFEFE00000000009B
:1003600000FEFE0A1E3E30E0C0C0E0703E1E0A1EC7
:100370003E70E0C0C0E0703E1E0A0606060686C655
:10038000E6763E1E010001001200000000FEFEFEA7
:10039000FEFEFE00000000000000001280C0E0F041
:1003A000F8FCFEFEFCF8F0E0C08000000000010058
:1003B00001000A00C0E060606060E0C0800AFEFEEC
:1003C0006060606060E0C0800A80C0E06060606083
:1003D000E0C0800A80C0E06060606060FEFE0A806D
:1003E000C0E060606060E0C0800780F8FC8E8E1C1A
:1003F000180A80C0E06060606060E0E00AFEFE60B5
:1004000060606060E0C08002ECEC0800000000006A
:1004100000E6E608FEFE000080C0E060060606FE7C
:10042000FE00000AE0E06060E0E06060E0C00AE03A
:10043000E080C0E06060E0C0800A80C0E060606092
:1004400060E0C0800AE0E06060606060E0C0800A58
:1004500080C0E06060606060E0E00AE0E080C0E0F2
:100460006060E0C0800A80C0606060606060C0C0A2
:10047000086060FEFE606060600AE0E0000000006E
:100480000000E0E00AE0E0000000000000E0E00A18
:10049000E0E0000000000000E0E00A60E0C0800052
:1004A0000080C0E0600AE0E0000000000000E0E042
:1004B0000A606060606060E0E0E0600100080000E9
:1004C00000000000000001000EFFFFE0C08F9F9FB2
:1004D0009F9F8FC0E0FFFF0EFFFFFFFF9F9F808069
:1004E0009F9FFFFFFFFF0EFFFF9F8F878391989CC9
:1004F0009E9F9FFFFF0EFFFFE7C78F9F9F9E9E8ED1
:10050000C0E1FFFF0EFFFFF8F8F9F9F9F98080F973
:10051000F9FFFF0EFFFFE7C78F9F9F9F9F8FC0E0F0
:10052000FFFF0EFFFFE0C08F9F9F9F9F8EC0E0FFE9
:10053000FF0EFFFFFFFFFF8080FEFFFFFFFFFFFFBB
:100540000EFFFFE1C08C9E9E9E9E8CC0E1FFFF0EC1
:10055000FFFFFFFF9E9E8EC6E2F0F8FCFFFF120039
:10056000000000000000000000000000000000008B
:1005700000000400000000020000140060607F7FA3
:10058000606000001F3F7060606060703F1F00147B
:1005900000000060607F7F606000000060607F7F1F
:1005A00060600000140060607F7F60600000607029
:1005B000787C6E676361606000140060607F7F60BC
:1005C00060000018387060606161713F1E0014FFA8
:1005D0009F9F80809F9FFFFFE0C08F9F9F9F9F8F67
:1005E000C0E0FF14FFFFFF9F9F80809F9FFFFFFFE2
:1005F0009F9F80809F9FFFFF14FF9F9F80809F9FF2
:10060000FFFF9F8F878391989C9E9F9FFF14FF9F62
:100610009F80809F9FFFFFE7C78F9F9F9E9E8EC0FA
:10062000E1FF010001000100010002606001000A19
:100630001F3F7060606060703F1F0A000060607F55
:100640007F606000000A6070787C6E676361606044
:100650000A18387060606161713F1E0A070706065C
:1006600006067F7F06060A18387060606060703F7B
:100670001F0A1F3F7060606060713F1F0A0000002A
:100680007F7F01000000000A1E3F7361616161739A
:100690003F1E0A0000616171391D0F070304000C41
:1006A0000C000100010001000100010001000A7FAF
:1006B0007F0606060606067F7F0A7F7F616161610D
:1006C00061733F1E0A1F3F60606060607038180AE7
:1006D0007F7F6060606060703F1F0A7F7F61616143
:1006E00061616160600A7F7F010101010101000019
:1006F0000A1F3F7060606061713F1F0A7F7F0101C8
:10070000010101017F7F0660607F7F60600818380B
:10071000706060703F1F0A7F7F0303070E1C3870F4
:10072000600A7F7F60606060606060600A7F7F0059
:1007300000000000007F7F0A7F7F000001071C305F
:100740007F7F0A1F3F7060606060703F1F0A7F7F7D
:1007500001010101010100000A1F3F7060606C7C13
:10076000387F6F0A7F7F0103070F1D3970600A30E1
:10077000706161616161733F1E0A000000007F7F4C
:10078000000000000A1F3F7060606060703F1F0A39
:10079000070F1C387070381C0F070A1F3F70783E17
:1007A0003E78703F1F0A787C0E070303070E7C78A3
:1007B0000A000000007F7F000000000A787C6E675E
:1007C000636160606060010001001202060E1E3F5E
:1007D0007FFFFF7F3F1E0E06020000000012000098
:1007E00000007F7F7F7F7F7F00000000000000000F
:1007F000010001000A183C6666666666667F3F0A6D
:100800007F7F6060606060703F1F0A1F3F706060A4
:1008100060607039190A1F3F7060606060607F7FA0
:100820000A1F3F766666666676371307017F7F018B
:100830000100000A2367EECCCCCCCCEC7F3F0A7FD2
:100840007F0000000000007F7F027F7F0818387063
:100850006060703F1F087F7F0E0F1F397060066059
:10086000607F7F60600A7F7F00007F7F00007F7F66
:100870000A7F7F0101000000007F7F0A1F3F706038
:10088000606060703F1F0AFFFF18181818181C0FCF
:10089000070A070F1C1818181818FFFF0A7F7F0394
:1008A000010000000001010A317366666666667E1B
:1008B0003C180800001F3F707038180A1F3F706016
:1008C000606060703F1F0A070F1C387070381C0F83
:1008D000070A1F3F70703E3E70703F1F0A607039FC
:1008E0001F0F0F1F3970600A0307CECCCCCCCCECA5
:1008F0007F3F0A6070787C6E67636160600100080A
:1009000000000000000000000100000000002300C3
:100910002600290000000000250028002B00040408
:100920000404040404040202020202020303030397
:100930000303010204081020408001020408102073
:10094000010204081020FF1A831A11241FBECFEFE2
:10095000D8E0DEBFCDBF11E0A0E0B1E0E6E6FBE409
:1009600002C005900D92AC37B107D9F724E0ACE78F
:10097000B1E001C01D92AA3FB207E1F714E0C4EA5A
:10098000D4E004C02197FE010E943D24C33AD10760
:10099000C9F70E94151C0C94A6250C94000008951C
:1009A0000895982F20919C0481E0213208F043C0E3
:1009B00080919B048111FCCF8091F70332E030934A
:1009C0009B0490939A049FEF9093D5031092D403C5
:1009D0002093D303A7EDB3E0E3EBF3E090E029131A
:1009E00031C01092B2039091B203880F892B80938B
:1009F000B20380919904813049F510929904809155
:100A0000B2038093BB008091BC0083FDF8CF85ECDE
:100A10008093BC0080919B048230E1F38091D503E8
:100A20008F3FB1F08091D5038032A1F08091D50342
:100A3000803391F084E010929D0410929C041092F7
:100A4000D60308953D9131939F5FC9CF85EEE0CFE6
:100A500080E0F1CF82E0EFCF83E0EDCF829590E0B0
:100A60009C0135952795359527952373880F991FF8
:100A7000880F991F8C7C282B30E0C90195958795AC
:100A80008575220F331F2A7A822B08954617A8F006
:100A90009091F404491788F49091F504891768F44B
:100AA000E091F204F091F3049AE3899FE00DF11DC7
:100AB000112461A342A381E0089580E00895CF93BB
:100AC000DF93262F2695382F70E0680F791FFC01E1
:100AD0008E2F831B821750F4819161507109DB01C5
:100AE0009C91EF01219798838C93F2CFDF91CF9166
:100AF0000895482FFC018E2F841B8617E0F4219166
:100B000030E0C901959587958575220F331F2A7AA4
:100B1000822B90E09C013595279535952795237379
:100B2000880F991F880F991F8C7C822B8295DF017B
:100B300011978C93E0CF089580919E0490919F042B
:100B4000891B990B0895AF92BF92CF92DF92EF92DB
:100B5000FF920F931F93CF93DF936C017B018B0167
:100B6000040F151FEB015E01AE18BF08C017D107B7
:100B700059F06991D601ED91FC910190F081E02D41
:100B8000C6010995892B79F7C501DF91CF911F9196
:100B90000F91FF90EF90DF90CF90BF90AF900895AE
:100BA000FC01538D448D252F30E0842F90E0821B73
:100BB000930B541710F0CF96089501970895FC01F8
:100BC000918D828D981761F0A28DAE0FBF2FB11D50
:100BD0005D968C91928D9F5F9F73928F90E00895A8
:100BE0008FEF9FEF0895FC01918D828D981731F062
:100BF000828DE80FF11D858D90E008958FEF9FEFB6
:100C00000895FC01918D228D892F90E0805C9F4F8B
:100C1000821B91098F739927089588EF93E00E94B2
:100C2000010621E0892B09F420E0822F089580E05D
:100C300090E0892B29F00E940D0681110C94000090
:100C40000895FC01A48DA80FB92FB11DA35ABF4F61
:100C50002C91848D90E001968F739927848FA689BB
:100C6000B7892C93A089B1898C91837080648C930F
:100C7000938D848D981306C00288F389E02D8081BE
:100C80008F7D80830895EF92FF920F931F93CF93F0
:100C9000DF93EC0181E0888F9B8D8C8D98131AC0B7
:100CA000E889F989808185FF15C09FB7F894EE899E
:100CB000FF896083E889F9898081837080648083FB
:100CC0009FBF81E090E0DF91CF911F910F91FF9046
:100CD000EF900895F62E0B8D10E00F5F1F4F0F73EE
:100CE0001127E02E8C8D8E110CC00FB607FCFACFA9
:100CF000E889F989808185FFF5CFCE010E94210620
:100D0000F1CFEB8DEC0FFD2FF11DE35AFF4FF08279
:100D10009FB7F8940B8FEA89FB8980818062CFCFDF
:100D2000CF93DF93EC01888D8823B9F0AA89BB8922
:100D3000E889F9898C9185FD03C0808186FD0DC00D
:100D40000FB607FCF7CF8C9185FFF2CF808185FF2E
:100D5000EDCFCE010E942106E9CFDF91CF9108951A
:100D600090E0FC01E859FF4F2491FC01EE5CF64F46
:100D70003491FC01E25EF64FE491EE23C9F02223A8
:100D800039F0233001F1A8F4213019F1223029F192
:100D9000F0E0EE0FFF1FEC5EF64FA591B4918FB718
:100DA000F894EC91611126C030953E233C938FBF9F
:100DB00008952730A9F02830C9F0243049F78091F0
:100DC00080008F7D03C0809180008F7780938000AA
:100DD000DFCF84B58F7784BDDBCF84B58F7DFBCF2C
:100DE0008091B0008F778093B000D2CF8091B00017
:100DF0008F7DF9CF3E2BDACFCF93DF9390E0FC01CC
:100E0000EE5CF64F2491825E964FFC01849188231C
:100E1000D1F090E0880F991FFC01E458FF4FA59195
:100E2000B491FC01EC5EF64FC591D49161110EC0F6
:100E30009FB7F8948C91E22FE0958E238C932881B4
:100E4000E223E8839FBFDF91CF9108958FB7F89495
:100E5000EC91E22BEC938FBFF6CF3FB7F8948091E3
:100E6000050290910602A0910702B091080226B5F2
:100E7000A89B05C02F3F19F00196A11DB11D3FBFD2
:100E8000BA2FA92F982F8827BC01CD01620F711DA1
:100E9000811D911D42E0660F771F881F991F4A959B
:100EA000D1F708958F929F92AF92BF92CF92DF9227
:100EB000EF92FF924B015C010E942D076B017C01B8
:100EC0000E942D076C197D098E099F09683E7340A9
:100ED00081059105A8F321E0821A9108A108B108C3
:100EE00088EEC80E83E0D81EE11CF11C8114910429
:100EF000A104B10429F7FF90EF90DF90CF90BF904D
:100F0000AF909F908F9008952FB7F8946091010251
:100F10007091020280910302909104022FBF089504
:100F20002091AC043091AD042817390771F49091E9
:100F3000090280910A02981741F0E0910902F0E05D
:100F4000E054FE4F808190E008958FEF9FEF089569
:100F50000895EF92FF920F931F93CF93DF93DC01DD
:100F60005C96ED90FC905D97E114F10479F481E0DA
:100F700090E013969C938E93129790E080E0DF911F
:100F8000CF911F910F91FF90EF9008955196ED91A1
:100F9000FC91529750968C915097982F90950FB73F
:100FA0005E962C915E97122F127021FD6095F89439
:100FB0002081112319F1282B2083E7012197F1F7D4
:100FC00028E0462F50E0308160FF1AC0382B308374
:100FD000E7012197F1F7BA0175956795215089F7D7
:100FE000112381F08081892380830FBF5C968D91CE
:100FF0009C910197F1F781E090E0C1CF2923DCCFEC
:101000003923E5CF9081892BEFCF2091AC0430912B
:10101000AD042817390771F480910A022091090262
:1010200090E0805C9F4F821B910960E470E00E9419
:101030002924089590E080E008952091AC04309137
:10104000AD0428173907B9F49091090280910A027A
:10105000981789F0E0910902F0E0E054FE4F80819A
:101060002091090230E02F5F3F4F2F7333272093E9
:10107000090290E008958FEF9FEF089585ED80932A
:10108000BC008091BC0084FDFCCF10929B040895AD
:1010900020919D01260F3327331F21323105ECF4B7
:1010A00020919B04FC0190E080E0243069F082E014
:1010B0000895A0919D012191AC0143585E4FA40F6A
:1010C000B52FB11D2C930196861798F380919D0141
:1010D000680F60939D0180E0089581E00895E0919C
:1010E0009F0480919E04E81730F4F0E0E55FFD4F27
:1010F000808190E008958FEF9FEF089590919F0475
:1011000080919E042FEF3FEF981748F4E92FF0E00D
:10111000E55FFD4F208130E09F5F90939F04C90100
:101120000895CF92DF92EF92FF920F931F93CF9388
:10113000DF937C01CB018A012091D603222389F021
:10114000EB016B01C40ED51ECC15DD0569F069916C
:10115000D701ED91FC910190F081E02DC701099537
:10116000F3CF642F0E944808C801DF91CF911F91EF
:101170000F91FF90EF90DF90CF900895CF93DF9382
:101180001F92CDB7DEB769832091D6032223F9F0F1
:1011900020919C04203258F021E030E0FC013383A0
:1011A000228390E080E00F90DF91CF9108958091AD
:1011B0009D04E82FF0E0E952FC4F998190838F5F06
:1011C00080939D0480939C0481E090E0ECCF61E0EB
:1011D000CE0101960E944808F7CFCF92DF92EF929E
:1011E000FF920F931F93CF93DC0154968D919C91A6
:1011F00055978617970709F49AC06115710511F480
:1012000066E870E055967C936E93549756961C92C0
:10121000569788E057968C93579758961C925897F4
:1012200084E190E05A969C938E9359978DE790E0D5
:101230005C969C938E935B975E961C921E925D9734
:10124000FB018491863409F031C03196E491E1309C
:1012500009F452C082E090E0E23021F5FB013296C1
:1012600084913196E49190E0982F88278E0F911DFC
:101270005A969C938E935997FB013496849131969C
:10128000E49190E0982F88278E0F911D5C969C9397
:101290008E935B97FB013696E4915796EC935797A4
:1012A00087E090E05E969C938E935D975D96CD90DF
:1012B000DC905E97F12CE12C59968D919C915A9778
:1012C0005B964D915C915C97C0E04817590768F1B7
:1012D000FB01EC0DFD1D0491C01708F4C02F10E0B8
:1012E00030E020E00F5F1F4F2F4F3F4FC00ED11E49
:1012F000E21EF31E0196E9CFFB013296E491F0E085
:101300005A96FC93EE935997FB013396E491F0E0E3
:101310005C96FC93EE935B97FB013496E4915796B1
:10132000EC93579785E090E0BDCF5896CC9381E041
:10133000CF911F910F91FF90EF90DF90CF90089584
:10134000FC018185681738F52285338579E0679F30
:10135000200D311D1124848150E09381992371F077
:10136000882331F087E090E0FC01E41BF50BAF012E
:10137000240F351FF90180810C942E05882331F04C
:1013800087E090E0BC01641B750BAB01240F351F97
:10139000F9018081089580E008958F929F92AF9225
:1013A000BF92CF92DF92EF92FF92CF93DF93FC0137
:1013B000242F30E08381882309F447C087E090E040
:1013C000821B930B91E001C0990F8A95EAF7818502
:1013D000681708F040C022853385A90189E0689F1D
:1013E000400D511D1124BA01E48130E020E080E07D
:1013F000A7E0B0E0C12CD12C7601C394F22FAD014F
:10140000421B530BE11101C0A901460F571FEA010E
:101410004881492351F04601570104C0880C991CAA
:10142000AA1CBB1CFA95D2F788292F5F3F4F2830A2
:10143000310521F7DF91CF91FF90EF90DF90CF90B2
:10144000BF90AF909F908F90089591E001C0990F49
:101450004A95EAF7BCCF80E0EDCFFC012281211153
:101460000C94CD090C94A009462F4770669566959B
:1014700066950C942D0ACF93DF9300D0CDB7DEB7DD
:1014800069831A82DC01ED91FC910084F185E02DE5
:10149000BE016F5F7F4F099581E090E00F900F9044
:1014A000DF91CF910895089590E080E00895FC01C8
:1014B000828D968DA4A5B5A591FD15C0882381F0D8
:1014C000868997890597A9F481E022A533A52A1773
:1014D0003B0709F080E086A71197B5A7A4A7089558
:1014E000808D918DEFCF882379F086899789059734
:1014F00059F7CD01019695A784A781E011969C919B
:10150000911180E086A70895808D918DF0CFDC0148
:1015100096962C919697621750F49396ED91FC91C4
:10152000BAE36B9FE00DF11D112414861386089514
:101530000F931F93FC0186A1681758F4A3A1B4A1CF
:101540008AE3689FA00DB11D11249B965C934E9376
:101550009A9786A1681758F4A3A1B4A18AE3689F5B
:10156000A00DB11D112455963C932E93549786A13E
:10157000681758F4A3A1B4A18AE3689FA00DB11D18
:10158000112418961C930E93179786A1681758F488
:10159000A3A1B4A18AE3689FA00DB11D11241A96DE
:1015A0001C921E92199786A1681788F4A3A1B4A172
:1015B0008AE3689FA00DB11D112481E090E0579649
:1015C0009C938E93569759961C921E925897CF01D2
:1015D0001F910F910C94870AAF92BF92CF92DF9226
:1015E000EF92FF920F931F93CF93DF93EC018885C7
:1015F0008823A1F08091CD04882361F08FB7F894FF
:101600009091CD04913049F59DB390937C019DB3A9
:101610009DBB8FBF80E58CBD81E08DBD60E08F817B
:101620000E94B00688858823D9F030E020E08985C3
:1016300090E0880F991F2817390708F03FC0EC8504
:10164000FD85E20FF31F80818EBD00000DB407FE03
:10165000FDCF8EB52F5F3F4FEACF80937C01DACF6D
:1016600010E000E0898590E0880F991F081719079E
:1016700028F5EC85FD85E00FF11FC080BE80AD80B0
:1016800087E0E82EF12CD12CB6010E2C02C0759506
:1016900067950A94E2F761708A2D0E94B00661E0B6
:1016A0008B2D0E94B00660E08B2D0E94B00681E079
:1016B000E81AF10848F70F5F1F4FD4CF61E08F8120
:1016C0000E94B0068885882371F08091CD0488231C
:1016D00051F09FB7F8942091CD0480917C01213086
:1016E00069F48DBB9FBFDF91CF911F910F91FF9048
:1016F000EF90DF90CF90BF90AF9008958FBFF3CF62
:101700001F93CF93DF93EC01A881B98158961C9168
:101710008CA9180F89A9811768F48AA99BA9009739
:1017200011F00E94F32419AB812F90E00E945724FE
:101730009BAB8AABDF91CF911F910895CF93DF933D
:101740009091F5048917A0F4C091F204D091F304AC
:101750009AE3899FC00DD11D112479AF68AF8881AC
:1017600099810E94ED08CE01DF91CF910C94800BFE
:10177000DF91CF910895FC01418550E0440F551F42
:1017800070E060E0848595850C948525CF92DF928A
:10179000EF92FF920F931F93CF93DF93EC01D62E1E
:1017A000C42E79010E94BB0BCD1408F457C082E00F
:1017B000E816F10409F444C048F4E114F104B1F06E
:1017C000F1E0EF16F104A9F1D394EECF83E0E8162F
:1017D000F104E9F1E4E0EE16F104B1F781E001155E
:1017E000110509F480E0819599E006C081E00115BA
:1017F000110509F080E09CE04D2D50E02985215035
:10180000330B241B350B220F331F6C857D85260F70
:10181000371FF901908329852150330B241B350B89
:10182000220F331F4C855D85240F351FF9018183FD
:10183000CBCF802F083011050CF087E09BE0DCCF88
:10184000802F003111050CF08FE09AE0D5CF81E0B8
:101850000115110509F480E09FE0CECFCE010E9472
:10186000EC0A81E0DF91CF911F910F91FF90EF90F3
:10187000DF90CF900895BF92CF92DF92EF92FF92C8
:101880000F931F93CF93DF93FC012185621708F01C
:101890004EC0EC01F9E06F9F70011124D12CC12CD6
:1018A000062F10E0BB24B394BC0CEA85FB85EE0D3B
:1018B000FF1D808590E00C2C02C0959587950A94B9
:1018C000E2F780FF27C0CE010E94BB0B89858150C3
:1018D000990B801B910B880F991F2C853D85820FDA
:1018E000931FFC01B082EA85FB85EE0DFF1DEC0D18
:1018F000FD1D408189858150990B801B910B880FBC
:10190000991F2C853D85820F931FFC014183CE01D9
:101910000E94EC0AFFEFCF1ADF0A88E0C816D10454
:1019200009F68A859B85E80EF91EF7011086DF917E
:10193000CF911F910F91FF90EF90DF90CF90BF90CC
:1019400008950F931F93CF93DF93EC01162F042F6D
:10195000822F9B8191110E942E0599E0199F900181
:101960001124AA85BB85A20FB31F602F70E09C8154
:1019700047E050E0461B570B911101C0AB01A40F8B
:10198000B51F8C93EA85FB85E20FF31F20858C81C0
:101990008823F1F047E050E0461B570B81E090E0D0
:1019A000A0E0B0E004C0880F991FAA1FBB1F4A9592
:1019B000D2F7822B80878A89882321F0612FCE017C
:1019C0000E943B0C81E0DF91CF911F910F91089510
:1019D00081E090E0A0E0B0E004C0880F991FAA1F4A
:1019E000BB1F0A95D2F7E5CF9F92AF92BF92CF92DD
:1019F000DF92EF92FF920F931F93CF93DF93FC013F
:101A000089E0689FE001112481E090E0A0E0B0E06F
:101A10006C017D01042E04C0CC0CDD1CEE1CFF1CEF
:101A20000A94D2F7BC2C7C2D709507E010E0041BC3
:101A3000110904C0880F991FAA1FBB1F0A95D2F76E
:101A4000A82E382F309590E080E0022F10E027E09C
:101A5000E22EF12CAC01A285B385AC0FBD1F248111
:101A600093806801082E02C0D594C7940A94E2F7C7
:101A7000C0FE2AC0222319F0A701481B590BA40F4E
:101A8000B51F2C914B2D91104A2D242B2C93019690
:101A900088309105F9F682859385C80FD91F8FEF9D
:101AA00088878289882319F0CF010E943B0C81E04E
:101AB000DF91CF911F910F91FF90EF90DF90CF902A
:101AC000BF90AF909F900895222319F0A701481B63
:101AD000590BA40FB51F2C91472F9110432F24238E
:101AE000D5CFFC0152813185552321F0631730F4A5
:101AF0000C94F40C631710F40C94A10C80E008957E
:101B0000242F462F477033E0769567953A95E1F795
:101B10000C94710DFC0152813185552331F063170E
:101B200050F4483041F00C94A10C631720F4483075
:101B300011F00C94F40C80E00895CF92DF92EF92B4
:101B4000FF920F931F93CF93DF93FC01722F82813B
:101B50005185882309F45DC0651708F0BEC02830A0
:101B600009F4BBC009E0609F700111248285938550
:101B70008E0D9F1D50E0A22FB0E024812223B9F1E9
:101B800027E030E0E901C41BD50BAE012A1B3B0B5B
:101B9000480F591FEA014881820F931FEC014883C7
:101BA00082859385E701C80FD91F28858481882302
:101BB00001F147E050E04A1B5B0B81E090E0A0E0C0
:101BC000B0E004C0880F991FAA1FBB1F4A95D2F727
:101BD000822B88878289811118C081E0DF91CF91A3
:101BE0001F910F91FF90EF90DF90CF9008959D018E
:101BF000CFCF81E090E0A0E0B0E004C0880F991F53
:101C0000AA1FBB1F7A95D2F7E3CFCF010E943B0CEE
:101C1000E4CFA42FB0E09381992309F44FC027E0CB
:101C200030E02A1B3B0B91E001C0990F2A95EAF79F
:101C30006517A0F6783091F2D9E06D9FA0011124CC
:101C400001E010E020E030E068017901072E04C0D7
:101C5000CC0CDD1CEE1CFF1C0A94D2F7DC2DCC2D25
:101C6000C095A7E0B0E0A71BB10904C0000F111F89
:101C7000221F331FAA95D2F7F02E009530E020E006
:101C8000A285B385A40FB51FA20FB31F8C917381DA
:101C9000182F1923D9F0711117C07D2F872B8C9322
:101CA0002F5F3F4F2830310559F782859385480FC4
:101CB000591F8FEFDA0118968C938CCF91E001C0F9
:101CC000990F4A95EAF7B4CF7F2DE8CF711103C081
:101CD0007C2F8723E4CF702FFCCF80E07FCF8F92C3
:101CE0009F92AF92BF92CF92DF92FF920F931F937A
:101CF000CF93DF93CDB7DEB728970FB6F894DEBF4A
:101D00000FBECDBF4830510508F0CBC1FA01F62E09
:101D10008C01E357F14F0C943D24950EE60E1D0FF8
:101D2000570F920FD70F1B103B1029E0629FA001A5
:101D30001124DC0112968C918823C9F130E020E057
:101D4000D8011A96ED91FC911B97E40FF51FE20F55
:101D5000F31F808113969C91992339F190E095951A
:101D6000879580832F5F3F4F2830310549F7D80191
:101D70001A96ED91FC91B9E0FB9EE00DF11D112446
:101D80008FEF808781E028960FB6F894DEBF0FBEF4
:101D9000CDBFDF91CF911F910F91FF90DF90CF903A
:101DA000BF90AF909F908F900895880FDACF87E013
:101DB00090E0D8011A96ED91FC91E40FF51FE80F21
:101DC000F91F208121830197A0F7D1CFE9E06E9F11
:101DD00090011124DC0112968C918823E1F050E0EF
:101DE00040E0D8011A96ED91FC911B97E20FF31F8A
:101DF000E40FF51F808113969C91992341F0880F81
:101E000080834F5F5F4F4830510559F7B0CF90E066
:101E100095958795F5CF81E090E0D8011A96ED91E0
:101E2000FC91E20FF31FE80FF91F408131974083C7
:101E300001968830910589F79ACFFC01D280838979
:101E40008823F9F040E0C801DD20C1F00E94A0091C
:101E50008983DD20C1F020E0DD24D394D20E4D2D06
:101E60006F2DC8010E949D0D2D2D2730A9F72981C6
:101E700047E06F2DC8010E948A0D79CF0E94CD09DD
:101E8000E7CF1982E6CFF9E0FF9EA001112487E099
:101E900090E0D8011A96ED91FC91E40FF51FE80F40
:101EA000F91F2081220F2083019798F7E0CFFC01D2
:101EB000D28083898823D9F047E0C801DD20A1F0D2
:101EC0000E94A0098983DD20A1F028E0DD24DA94B6
:101ED000D20E4D2D6F2DC8010E949D0D2D2DD110BC
:101EE000F5CF298140E0C5CF0E94CD09EBCF198203
:101EF000EACFF9E0FF9EA001112430E020E0D801F4
:101F00001A96ED91FC91E40FF51FE20FF31F80810B
:101F100090E09595879580832F5F3F4F283031055E
:101F200071F7DFCFB9E06B9F60011124FC01828162
:101F30008823C1F0912C812CD8011A96AD90BC90C9
:101F4000AC0CBD1CA80CB91CF50180810E942E05AB
:101F5000D5018C93BFEF8B1A9B0AE8E08E16910493
:101F600059F705CF30E020E047E050E0D8011A965D
:101F70008D919C918C0D9D1DFC01E20FF31FB08093
:101F8000BA01621B730B860F971FDC018C91808353
:101F9000D8011A96ED91FC91EC0DFD1DE60FF71F8F
:101FA000B0822F5F3F4F2430310501F7E0CEB9E01A
:101FB0006B9F40011124FC018281882329F130E0CC
:101FC00020E047E050E0D8011A968D919C91880D51
:101FD000991DFC01E20FF31FD080BA01621B730B45
:101FE000860F971FDC018C918083D8011A96ED91A2
:101FF000FC91E80DF91DE60FF71FD0822F5F3F4FD0
:102000002430310501F7B3CEB12CA12CF801C284E4
:10201000D384C80CD91CCA0CDB1CD6018C910E943D
:102020002E05F6018083FFEFAF1ABF0A28E0A21643
:10203000B10461F79CCECE0101965C014C0187E0B2
:10204000D82E4D2D6F2DC8010E942D0AD4018D93DD
:102050004D01DA94BFEFDB12F4CFD12CF5012191C1
:102060005F014D2D6F2DC8010E948A0DD394F8E0B9
:10207000DF12F4CF7CCE29E0629FA001112490E012
:1020800080E0D8011A96ED91FC91E40FF51FE80F5E
:10209000F91F20812095208301968830910589F7CA
:1020A00066CE80E070CECF92DF92EF92FF920F93D8
:1020B0001F93CF93DF93EC01DD24D394F12CE12C1B
:1020C00001E010E0B9E0CB2ECE010E94BB0B9801DD
:1020D0000E2C02C0220F331F0A94E2F7E0E090E0DA
:1020E0008985E81798F5EC9DA0011124AA85BB8588
:1020F000A40FB51F18966C9170E062237323672BB1
:1021000019F16E2F70E08150990B861B970B880F89
:10211000991FAC85BD85A80FB91FDC92AA85BB8528
:10212000A40FB51FAE0DBF1DFC9189858150990B81
:10213000861B970B880F991F4C855D85840F951F13
:10214000DC011196FC9391E0EF5FCACF992319F05F
:10215000CE010E94EC0ABFEFEB1AFB0AD39488E091
:10216000E816F10409F0B0CF80E099E029858217E4
:1021700048F4EA85FB85899FE00DF11D1124108646
:102180008F5FF4CFDF91CF911F910F91FF90EF9070
:10219000DF90CF900895CF93DF93C9E078E05FEFB1
:1021A0004617B0F06C9F90011124FC01A285B38505
:1021B000A20FB31FFD01D72F1192DA95E9F7DC01C9
:1021C0001A96ED91FC91E20FF31F50876F5FE8CFF5
:1021D000FC012289222321F0DF91CF910C9453102E
:1021E000DF91CF9108956F927F928F929F92AF92DD
:1021F000BF92CF92DF92EF92FF920F931F93CF93F4
:10220000DF93CDB7DEB729970FB6F894DEBF0FBEC8
:10221000CDBF8C01E62EF42E5901461708F43DC1BE
:10222000DC015296DC90529752961C922830310570
:1022300008F033C1F901E15EFE4E0C943D247211A9
:10224000EE11441244122711441244124412642F16
:1022500070E0AE2CB12C4B018A189B0897FE03C08E
:10226000EFEF8E1A9E0A95948794712C29E0C22E66
:10227000472D50E0481559050CF0FCC0F8012285A7
:102280003385FA01EA0DFB1DCE9EC001CF9E900D55
:102290001124820F931FFC01DE0111966C2C01901A
:1022A0000D926A94E1F7FB01E41BF50BCE9EA001B1
:1022B000CF9E500D1124F901E40FF51FDC018C2D88
:1022C00001900D928A95E1F7F801A285B385A40FDC
:1022D000B51FFE0131968C2D01900D928A95E1F784
:1022E0007394C6CFDC0153968C91882341F1642FFF
:1022F000660F660F660F695FC8010E94340AC82E18
:10230000AE2CB12C8F2D0F2C000C990B8A159B0530
:1023100064F150E040E06F2DC8010E946F0E9924D7
:102320009A949F0C47E0692DC8010E942D0A282F1E
:1023300040E06F2DC8010E94710DF92CE3CFF80128
:10234000A088B188A114B10471F0642F660F660FE4
:10235000660F695FC8010E94340A482F70E060E090
:102360008F2DF5010995C12CCBCFD8011E96ED918B
:10237000FC911F97309749F053968C91811105C0BD
:1023800070E060E08E2D0995C82EB50183E0660FE0
:10239000771F8A95E1F74C2DC8010E94800DD80166
:1023A0005296DC92DD2009F47AC0C8010E945310D5
:1023B0008D2D29960FB6F894DEBF0FBECDBFDF91ED
:1023C000CF911F910F91FF90EF90DF90CF90BF9032
:1023D000AF909F908F907F906F900895FC018389BC
:1023E0008823A9F1660F660F660FC8010E94340AA0
:1023F000C82E41E050E06E2DC8010E946F0EBB2434
:10240000B394BE0C40E06B2DC8010E942D0A282F0A
:1024100047E06E2DC8010E94710DEB2CFB1448F7AC
:10242000D8011E96ED91FC911F97309749F0539675
:102430008C91811105C061E070E08F2D0995C82E47
:10244000B8E0FB9EB0011124695F7F4FA4CFA08844
:10245000B188A114B10461F0660F660F660FC80160
:102460000E94340A482F61E070E08E2DF501099535
:10247000C12CBFCF44E050E06E2DC8010E946F0E0A
:10248000E394FE14B8F78BCFA5016E2DC8010E940E
:102490006F0EE394FE14C0F782CFD12C89CFDD24D8
:1024A000D39486CFCF93DF93EC014AA169A146175D
:1024B00020F0888199810E94CB108B8D882351F068
:1024C00027E030E04AA169A188819981DF91CF910D
:1024D0000C94F310DF91CF9108950F931F936A30FE
:1024E000710559F08A019B01FC014185415060E072
:1024F0000E94C60B1F910F91089521E041305105B4
:1025000009F020E0FC01228B4130510599F71F9121
:102510000F910C945310CF92DF92EF92FF920F9392
:102520001F93CF93DF937C016B01EA01CA010196EF
:102530000E9457248C010097F1F0AE01B6010E9471
:102540007C25F801EC0FFD1F1082D701ED91FC9165
:102550000084F185E02DB801C7010995C8010E94EA
:10256000F324CE01DF91CF911F910F91FF90EF9057
:10257000DF90CF900895D0E0C0E0F3CFCF92DF920C
:10258000EF92FF920F931F93CF936C017B01C42FA7
:102590008901DC019F96ED91FC91309709F18081D2
:1025A00091818E159F05C1F40280F381E02D808119
:1025B0008C1708F4C82F4C2F50E0BF016F5F7F4F7E
:1025C000C8010E947C258C2FCF911F910F91FF9005
:1025D000EF90DF90CF9008950480F581E02DDDCF5E
:1025E000F60160AD71AD808191810E94ED08011509
:1025F000110509F448C0D6012D913C91F901858D52
:10260000968DB0E0A0E0418D528DE416F506A0F164
:10261000638D748D6E157F0578F164897589FB0172
:10262000E80FF91FE416F50659F0E4918E0F911D9D
:10263000A11DB11D0196A11DB11D4F5F5F4FEFCFD1
:102640004491C41710F50196A11DB11DA801801B6E
:10265000910B642F601B6C1708F0B5CFBC01640FA1
:10266000751FD9015496ED91FC91E60FF71FE49187
:10267000DA01ED93AD01EDCF4C2F50E070E060E05A
:10268000C8010E948525C0E09ECFC491DCCF1F9376
:10269000CF93DF93EC01142F2AA93BA949A90E94EB
:1026A000BE12112389F0882379F090E02CA99217AB
:1026B00058F429A9821730F4EAA9FBA9E80FF11D03
:1026C00010828F5F9F5FF2CFDF91CF911F910895AE
:1026D0000F931F93CF93DF93EC018B01ECA5FDA526
:1026E00041E08181811101C040E0608170E0CE0154
:1026F0000E944713F80180832E8D9A8D21FD10C012
:10270000992359F02E893F892530310581F4682FAE
:102710008AA99BA90E945F050AC0288D398DF4CF34
:102720009923B9F02E893F892530310581F78E8DA7
:1027300080FF06C0F80160818AA99BA90E947905E3
:10274000CE010E94570A81E0DF91CF911F910F9136
:102750000895288D398DE8CF0F931F93CF93DF9382
:10276000EC01FB011082AAA5BBA5BDA7ACA71097E1
:1027700019F08C91811108C081E08EA780E0DF9173
:10278000CF911F910F9108951EA68A8D9E8D91FD68
:1027900010C0882359F08E899F89059781F40D9088
:1027A0000020E9F71297BDA7ACA709C0888D998DC5
:1027B000F4CF882331F18E899F89059781F7ACA5E5
:1027C000BDA541E011968C911197811101C040E0A7
:1027D0008B016C9170E0CE010E944713F801808359
:1027E0002E8D9A8D21FD13C0992371F02E893F897A
:1027F0002530310599F4682F8AA99BA90E945F05AD
:102800000DC0888D998DD9CF288D398DF1CF992321
:1028100099F02E893F892530310569F78E8D80FF2B
:1028200006C0F80160818AA99BA90E947905CE01A2
:102830000E94570A81E0A3CF288D398DECCFCF922B
:10284000DF92EF92FF920F931F93CF93DF93EC01F0
:102850000E945212CF84D8887E0185E3E80EF11CD5
:10286000B701CE010E94AC131FAA1EAA8601898956
:102870009A89081719077CF18DA92EA93FA98217FB
:10288000130611F081110AC01DAA8EA5811104C082
:10289000B701CE010E9468131FAA1EAA8DA9882322
:1028A00031F3888199814EA95FA99A012F5F3F4F2B
:1028B000EAA9FBA9E40FF51F4B8D3FAB2EAB4423D8
:1028C00041F040814095B8010E94800D01501109EE
:1028D000CECF4081F8CFDF91CF911F910F91FF9024
:1028E000EF90DF90CF900895EF92FF920F931F9398
:1028F000CF93DF93EC01062F8B859C85442309F44D
:1029000045C084309105E0F4019708F1CE010E94A2
:102910005212CE010E941F141BA193E0E92EF12C4C
:10292000011103C082E0E82EF12C1730F0F497017A
:102930004AA169A1888199810E94F3101F5FF5CF98
:10294000059721F385E090E09C878B8718C01CA237
:102950001BA29AA189A1981718F0E881F981138A1E
:1029600083E090E09C878B87D1CF8BA19CA125E051
:1029700030E08730910511F101969CA38BA3DF9184
:10298000CF911F910F91FF90EF90089584309105A2
:10299000C0F40197C0F08881998122E030E00111F4
:1029A00002C023E030E04AA169A10E94F3108BA18C
:1029B0009CA18730910501F726E030E03C872B870A
:1029C000DBCF059739F41CA21BA283E090E09C8723
:1029D0008B87E1CF86E090E0B7CF8F929F92AF9246
:1029E000BF92CF92DF92EF92FF920F931F93CF93FC
:1029F000DF93EC01F62E8B859C85442309F4E0C01F
:102A00008E010B5C1F4F35E0C32ED12C8230910517
:102A1000E9F050F08330910509F441C0049709F4BE
:102A2000A8C085E090E00FC0BE016B5C7F4FCE0177
:102A30000E94AC13811103C086E090E004C01FAA7D
:102A40001EAA83E090E09C878B870DC01DAA8EA5EF
:102A50008823B1F0DC86CB868B859C852DA921113E
:102A600016C0059799F7DF91CF911F910F91FF90B5
:102A7000EF90DF90CF90BF90AF909F908F90089590
:102A8000B801CE010E9468138111E6CFE3CF05970C
:102A900051F31FAA1EAA83E090E09C878B878DA923
:102AA000882329F121E02F2530E04AA169A18881FE
:102AB00099810E94F310888199816B8D2AA93BA985
:102AC0004EA95FA9662301F1BA016F5F7F4F7FAB0B
:102AD0006EAB240F351FF90140814095FF20F1F0C6
:102AE00069A1F8E06F9FB00111240E94800D2DA90B
:102AF0008EA99FA92817190609F0B5CF8EA58111B7
:102B000015C082E090E09FCFBA016F5F7F4F7FAB2F
:102B10006EAB240F351FF9014081E0CF6AA128E098
:102B2000629FB0011124695F7F4FDFCF2F85388905
:102B3000FF20B1F08D859E85A901481B590BCA0164
:102B4000019629A158E0259F8019910911249FAB76
:102B50008EAB181619060CF064CF84E090E073CFAA
:102B60008AA1E8E08E9FC00111240796821B930B77
:102B7000EECF21E0262730E04AA169A18881998122
:102B80000E94F310888199814B8D4195FF2081F03F
:102B900069A1F8E06F9FB00111240E94800D8EA9F9
:102BA0009FA901979FAB8EAB892B09F05CCF39CFE2
:102BB0006AA128E0629FB0011124695F7F4FEDCFC9
:102BC0008430910539F0059709F036CF84E090E024
:102BD0009C878B8721E02F2530E04AA169A188815D
:102BE00099810E94F310888199814B8D4195FF2036
:102BF00009F445C069A138E0639FB00111240E9427
:102C0000800D0AA110E0A9A0B12C6801CA18DB0848
:102C10008FEFC81AD80A23E0CC0CDD1C2A95E1F707
:102C20008C8D9D8D009721F08C159D0508F46C010D
:102C30000F5F1F4F83E0000F111F8A95E1F793E0AC
:102C4000AA0CBB1C9A95E1F7FF2021F14501740104
:102C5000EA18FB0880169106DCF5682D88819981B9
:102C60000E94340A90E02B8D222389F02FEF30E070
:102C70008217930769F5EFEF8E1A9E0AE8CF6AA1D3
:102C800058E0659FB0011124695F7F4FB8CF30E0F5
:102C900020E0EECF01501109F12CE12C0A151B05A3
:102CA000BCF0602F888199810E94340A90E02B8DBE
:102CB000222359F02FEF30E08217930749F4015097
:102CC0001109FFEFEF1AFF0AE9CF30E020E0F4CF5F
:102CD000EC14FD0408F0B0CEC6CE2F923F924F9276
:102CE0005F926F927F928F929F92AF92BF92CF929C
:102CF000DF92EF92FF920F931F93CF93DF935C01CC
:102D00004C0124E0820E911C50E040E06AE070E04B
:102D1000C4010E946D12412C312C2224239436E0F0
:102D2000632E712CF50186A1481608F03DC1C3A1A0
:102D3000D4A1FAE34F9EC00DD11D112418A28B859A
:102D40009C858630910509F42DC10597B9F00E9444
:102D500084070B811C812D813E81AB01BC01401B8E
:102D6000510B620B730B8F819885B0E0A0E0481780
:102D700059076A077B07C0F480E00AC10E948407F4
:102D80000B811C812D813E81AB01BC01401B510B8D
:102D9000620B730B89859A85B0E0A0E0481759074C
:102DA0006A077B07A0F6E8CF5A805110E5CF0E9452
:102DB00084076B837C838D839E8328A2CAA4DBA4B3
:102DC000C114D10409F4DDC08B859C850097D1F036
:102DD000069709F4D6C04A8D442309F4A7C08E890A
:102DE0009F898330910509F4D6C008F0ADC08130C9
:102DF000910509F4B4C061E0029709F4CDC07C8666
:102E00006B86B4C0DDA6CCA60AA128E0029F800193
:102E10001124095F1F4F89A148E0849F00191109FF
:102E200011240F5F1F4FF12CE12CF60161916F010E
:102E30006623A1F02AA93BA970E049A9CE010E940E
:102E4000BE1290E0E80EF91E892B79F3F60180811D
:102E5000882359F38CA9E80EF11CE7CFFE86ED8696
:102E60008C899D898130910509F43FC028F0029733
:102E700019F15524539417C08AA190E0019623E0DC
:102E8000880F991F2A95E1F79C0121503109388B51
:102E90002F870E151F0558F489A1F8E08F9FC001F8
:102EA00011249A8B898B52245B8A2A8E94CF8E1997
:102EB0009F099A8B898BDDCF89A128E0829FC00171
:102EC00011249A8B898B0E151F0548F48AA148E0BE
:102ED000849FC00111240796988B8F87E4CF0197B8
:102EE000E80EF91EF88AEF86C4CF29A188E0289F52
:102EF000900111240E151F0558F48AA1E8E08E9F59
:102F0000C00111240796988B8F873A8B298BCBCFE2
:102F10000E191F0916950795020F131F1A8B098B9F
:102F2000F1E0EF1AF108E00EF11EDCCF888D998DEB
:102F30008330910581F140F48130910509F05BCF38
:102F4000CE010E9452125BCF8430910549F160E0BE
:102F5000059709F054CFCE010E94ED1407C0CE01B1
:102F60000E941F1485E090E09C878B878A8D2B85BB
:102F70003C85882329F081E02530310509F480E083
:102F80008A8F81E02B853C852630310509F0F4CE0F
:102F9000382A4394C7CE60E0CE010E947414E6CF75
:102FA00061E0D9CF81E0F4CF41E050E06AE070E029
:102FB000C4010E946D12832DDF91CF911F910F915B
:102FC000FF90EF90DF90CF90BF90AF909F908F9049
:102FD0007F906F905F904F903F902F900895EF9269
:102FE000FF920F931F93CF93DF937C01EB01DC01E2
:102FF0009396ED91FC912489358910E000E0AB01B6
:1030000060E00E94980AC7010E946D168111FBCFF3
:10301000FE0101900020E9F7CF0101978C1B9D0B69
:10302000DF91CF911F910F91FF90EF900895EF9254
:10303000FF920F931F93CF93DF93482F4150550B6F
:1030400004E1049F7001059FF00C1124809F800112
:103050001124D0E0C0E05AE0E50EF11CC7018C0F4E
:103060009D1F0E94E523FE01E00FF11FE15AFD4F75
:10307000808365E070E080E090E00E945207219636
:10308000C431D10559F7DF91CF911F910F91FF9076
:10309000EF9008951F920F920FB60F9211242F9365
:1030A0003F934F935F936F937F938F939F93AF93D0
:1030B000BF93EF93FF9388EF93E00E942106FF9167
:1030C000EF91BF91AF919F918F917F916F915F91A0
:1030D0004F913F912F910F900FBE0F901F90189519
:1030E0001F920F920FB60F9211242F938F939F93DD
:1030F000EF93FF93E0910804F09109048081E0913F
:103100000E04F0910F0482FD1BC090818091110488
:103110008F5F8F7320911204821741F0E0911104A8
:10312000F0E0E850FC4F958F80931104FF91EF91F0
:103130009F918F912F910F900FBE0F901F90189518
:103140008081F4CF1F920F920FB60F9211242F930C
:103150003F938F939F93AF93BF9380910102909180
:103160000202A0910302B09104023091000223E018
:10317000230F2D3758F50196A11DB11D2093000294
:103180008093010290930202A0930302B093040281
:103190008091050290910602A0910702B091080269
:1031A0000196A11DB11D8093050290930602A09384
:1031B0000702B0930802BF91AF919F918F913F9109
:1031C0002F910F900FBE0F901F90189526E8230F98
:1031D0000296A11DB11DD2CF1F920F920FB60F9272
:1031E00011242F933F934F935F936F937F938F930C
:1031F0009F93AF93BF93EF93FF93E091AC04F09153
:10320000AD04309749F0A685B7858585968D91FFE9
:1032100014C09C918923A1F4FF91EF91BF91AF91CC
:103220009F918F917F916F915F914F913F912F91DE
:103230000F900FBE0F901F9018959C91892361F7F6
:10324000A389B4899C918589809589238C938689EB
:1032500097890197F1F7608D718DA685B7855585A2
:1032600038E020E0CB010197F1F7822F90E09595AF
:103270008795282F4C91452309F02068315091F70C
:10328000868D81FD209580910A0290E001968F73D2
:10329000992730910902381799F0A0910A02B0E0FD
:1032A000A054BE4F2C9380930A02828D938D019778
:1032B000F1F7A389B4898C919589892B8C93ACCF34
:1032C000868D8160868FF1CF1F920F920FB60F927D
:1032D00011242F933F934F935F936F937F938F931B
:1032E0009F93AF93BF93EF93FF938091B900887F33
:1032F000803609F44AC0F0F5883209F4A7C018F501
:10330000803109F49BC0B8F4882309F4F9C08830EF
:1033100009F494C0FF91EF91BF91AF919F918F916C
:103320007F916F915F914F913F912F910F900FBEC1
:103330000F901F901895883109F488C0803251F79A
:103340008093D50314C0803409F49DC040F48033C9
:10335000B9F38833F9F68093D50385ECB0C0803596
:1033600009F485C0883509F496C0883499F60E941E
:103370003E08D0CF883909F48CC038F5883729F059
:1033800050F4883611F0803729F683E080939B044F
:103390001092BF0157C0883809F47BC0803919F0FA
:1033A000803809F0B7CF8091BF01803208F071C03A
:1033B000E091BF0181E08E0F8093BF018091BB003F
:1033C000F0E0E156FE4F80833DC0803B39F0E0F4F1
:1033D000803A09F479C0883A09F09CCF84E0809360
:1033E0009B0410929E0110929D01E0919704F09130
:1033F0009804099580919D0181110FC081E080930F
:103400009D0110927D0109C0803C09F4A6CF883C43
:1034100009F4A3CF883B09F07DCFE0919E0181E0C4
:103420008E0F80939E01F0E0E358FE4F80818093E1
:10343000BB0090919E0180919D0129C08091B203B3
:103440008093BB0085EC8093BC0064CF9091D40343
:103450008091D303981758F5E091D40381E08E0F43
:103460008093D403F0E0ED54FC4F8081E9CFE091EC
:10347000D40381E08E0F8093D4038091BB00F0E0F1
:10348000ED54FC4F80839091D4038091D30398171F
:10349000C8F285E8D8CFE091D40381E08E0F809305
:1034A000D4038091BB00F0E0ED54FC4F8083809109
:1034B0009A0481115CCF81E08093990484EA80931F
:1034C000BC0010929B0426CF85EC8093BC00109228
:1034D0009B048091BF01803230F4E091BF01F0E0A5
:1034E000E156FE4F10826091BF0170E0E0919504BB
:1034F000F09196048FE991E009951092BF010ACFEF
:103500001092D50334CF0F931F93CF93DF938EE2A6
:1035100091E09093AF048093AE048091AC049091BD
:10352000AD048E5A944071F4E091C104F091C2044C
:1035300090818091C3048095892380831092AD048B
:103540001092AC0480E491E09093D0048093CF0477
:10355000C091F204D091F304209751F1FE0132970B
:10356000208131814AE3429FC001439F900D112485
:10357000C80FD91F8091F2049091F3048C179D0716
:1035800099F0EA978FA598A9009739F0FC0104817A
:1035900015810E94F324C801F7CF8AA99BA900973F
:1035A00049F30E94F324E6CFCE0102970E94F32450
:1035B0008091DB04882399F09FB7F8948091CE0422
:1035C000882319F081508093CE048091CE0481111C
:1035D00005C08CB58F7B8CBD1092CD049FBF8091B0
:1035E000DD049091DE040E94F3248091DF04909129
:1035F000E004DF91CF911F910F910C94F32410926E
:10360000FB031092FA0388EE93E0A0E0B0E0809311
:10361000FC039093FD03A093FE03B093FF032AE005
:1036200031E03093F9032093F80325EC30E0309338
:1036300005042093040424EC30E030930704209325
:10364000060420EC30E0309309042093080421ECB8
:1036500030E030930B0420930A0422EC30E03093E6
:103660000D0420930C0426EC30E030930F042093DB
:103670000E0410921104109212041092130410926E
:1036800014041092A3041092A2048093A4049093B3
:10369000A504A093A604B093A7042CE131E03093D5
:1036A000A1042093A0041092D2041092D10420E42B
:1036B00031E03093D0042093CF041092D8041092BC
:1036C000D9042AE02093DA0461E06093DB0428E265
:1036D0002093DC046093E50443E050E05093D4046D
:1036E0004093D3046093D5041092D6041092D7046B
:1036F0002093F4041092B1041092B0048093B204A9
:103700009093B304A093B404B093B5048EE291E017
:103710009093AF048093AE041092C5041092C40439
:103720001092C7041092C6041092C9041092C804E3
:103730001092CB041092CA048091CC048E7F8D7FAE
:103740008093CC0486958170682783E00E94B00640
:1037500061E083E00E94FC06E5E3F9E0E491E09398
:10376000BE04E1E2F9E0E491F0E0EE0FFF1FEC5E51
:10377000F64F859194919093C0048093BF0460E0CC
:1037800084E00E94FC068091CC0481FD04C061E0CD
:1037900084E00E94B00684E08093BA04E6E3F9E096
:1037A000E491E093BB04E2E2F9E0E491F0E0EE0F93
:1037B000FF1FE65FF64F859194919093BD0480932F
:1037C000BC0410929F0410929E0410929D041092CB
:1037D0009C0410929B0481E080939A0410929904B7
:1037E00061E082E10E94B00661E083E10E94B006E0
:1037F0008091B9008E7F8093B9008091B9008D7F50
:103800008093B90088E48093B80085E48093BC007D
:103810008FEC94E0909398048093970480ED94E06B
:1038200090939604809395040895CF93DF93CDB73A
:10383000DEB7EB970FB6F894DEBF0FBECDBF78941E
:1038400084B5826084BD84B5816084BD85B58260A5
:1038500085BD85B5816085BD80916E008160809356
:103860006E001092810080918100826080938100BF
:1038700080918100816080938100809180008160CF
:10388000809380008091B10084608093B10080912A
:10389000B00081608093B00080917A008460809352
:1038A0007A0080917A00826080937A0080917A0019
:1038B000816080937A0080917A00806880937A009A
:1038C0001092C10081E08093B1038093AB0310920A
:1038D000AA03E0910804F091090482E08083E0915A
:1038E0000404F09105041082E0910604F0910704AD
:1038F0008FEC808310921004E0910C04F0910D0481
:1039000086E08083E0910A04F0910B04808180615D
:103910008083E0910A04F0910B04808188608083A9
:10392000E0910A04F0910B04808180688083E0912B
:103930000A04F0910B0480818F7D80831092C9046A
:103940001092C8041092C7041092C6041092C504C5
:103950001092C4048DE991E09093CB048093CA0443
:103960009091BA04963108F047C02DEB30E03093C7
:10397000C5042093C4042BE931E03093C70420939D
:10398000C6042CE231E03093C9042093C80420918E
:10399000680084E0983048F031E09E3008F430E070
:1039A00081E001C0880F3A95EAF7822B8093680086
:1039B0002DE630E0983050F02BE630E09E3030F0CD
:1039C0002CE630E0963110F030E020E03093C20475
:1039D0002093C104292F30E0983008F01DC181E008
:1039E00001C0880F9A95EAF78093C3048091CA04B6
:1039F0009091CB040197F1F78091C8049091C9048C
:103A0000892B49F1E091AC04F091AD0424E0EE3A49
:103A1000F20709F1309739F0A389B4899C9185891F
:103A2000809589238C938091CC048E7F8093CC04E5
:103A300010920A02109209028EEA94E09093AD046B
:103A40008093AC04E091C104F091C2048081909114
:103A5000C304892B808362E370E080E090E00E94E1
:103A600052078091DB04882309F4E3C01FB7F89460
:103A70008091CE04811127C0E8E2F9E08491ECE363
:103A8000F9E09491E82FF0E0EE0FFF1FE458FF4FAC
:103A9000A591B491EC91E92321F461E08AE00E94C0
:103AA000B00661E08AE00E94FC068CB580618CBDA6
:103AB0008CB580648CBD61E08DE00E94FC0661E005
:103AC0008BE00E94FC068091CE048F5F8093CE0431
:103AD0001FBF61E08091DA040E94FC0661E08091E2
:103AE000DA040E94B0061092E2041092E1041092EF
:103AF000E4041092E3041091DC0439E0139FC00148
:103B000011240E9457249093DE048093DD04812FBA
:103B100090E0880F991F0E9457249093E0048093AF
:103B2000DF0466E870E083ED94E00E94ED0850E069
:103B300040E063E070E083ED94E00E946D1247E0A6
:103B400050E061E070E083ED94E00E946D1247E088
:103B500050E062E070E083ED94E00E946D1250E06E
:103B600040E064E070E083ED94E00E946D124091CB
:103B7000DC04415060E083ED94E00E94CB1050E003
:103B800040E070E060E083ED94E00E946D1284E01C
:103B90008093F5048AEE90E00E945724DC0124E033
:103BA00030E02D933D93FD0186519F4F46E050E05C
:103BB00021E0128213821482158216825487438771
:103BC000158E148E168E10AA17A611AA13AA12AA61
:103BD00024AB11AE10AEFA968E179F0751F7B09333
:103BE000F304A093F20410E00AE343EDE42E44E072
:103BF000F42E8091F504181738F58091F204909115
:103C0000F304109F800D911D1124DC01ED92FC92B4
:103C10000E94800B1F5FEDCF9E3040F42850310989
:103C200081E001C0880F2A95EAF7DECE2E503109D7
:103C3000F7CF61E08091D8040E94FC0661E080919A
:103C4000D9040E94FC0645CF813039F44091F40438
:103C5000415060E080E00E944605E091F204F0915E
:103C6000F30480E09AE32AE030E04091F504841701
:103C700058F4DF01899FA00DB11D112418963C93C3
:103C80002E9317978F5FF1CF878190854AE0489FE9
:103C90009001499F300D112480E09AE34091F50492
:103CA000841758F4DF01899FA00DB11D11241A96C5
:103CB0003C932E9319978F5FF1CF10E03AE3F32EE8
:103CC00001E0E091F204F091F3048091F5041817FB
:103CD00058F4CF011F9D800D911D1124FC0104ABF0
:103CE0000E94800B1F5FEDCF80E09AE32091F504E6
:103CF000821758F4DF01899FA00DB11D11245D9634
:103D00001C921E925C978F5FF1CF80E02AE3909126
:103D1000F504DF01891780F080E021E030E08917A9
:103D2000A9F057963C932E93569759961C921E9243
:103D300058978F5FDA96F3CF829FA00DB11D1124A3
:103D400055961C921E9254978F5FE1CF13A612A630
:103D500080E09AE32091F504821748F4DF01899FFF
:103D6000A00DB11D11245B961C928F5FF3CFF12C37
:103D70009AE3E92E27E0D22E8091F504F816B8F4E4
:103D8000E091F204F091F304FE9CE00DF11D11248A
:103D9000D78E8081918142A161A1461730F007E062
:103DA00010E022E030E00E94C60BF394E5CF70E013
:103DB00060E083ED94E00E94ED084DE060E080E07B
:103DC0000E94460541E264E181E00E94460543E12C
:103DD0006EE082E00E94460547E262E283E00E94D4
:103DE000460568EC74E080E00E949E0B66E870E097
:103DF00081E00E949E0B68EC74E082E00E949E0BC2
:103E000066E870E083E00E949E0B08E110E021E08C
:103E100030E046E953E060E08FEC94E00E94980ABD
:103E200009E110E021E030E046E953E061E08FEC89
:103E300094E00E94980A04E110E030E020E04CEAAF
:103E400053E062E08FEC94E00E94980A30E020E0BA
:103E50004CEA53E063E08FEC94E00E94980A10E093
:103E6000812F0E9417181F5F1F30D1F784E0C82EE2
:103E7000D12C9E012C5D3F4F3FAB2EAB4E0132E269
:103E8000830E911CCE01C69699AF88AF89E090E071
:103E9000DC01A819B909BBAFAAAF0DE59091F504F3
:103EA000A091F204B091F304FD0181E0FA96891724
:103EB00060F413964D915D916D917C9116974383BB
:103EC0005483658376838F5FF1CF8FEC94E00E94FB
:103ED0006D168091B10381509091F504823008F005
:103EE000C1C09923A9F0E091F204F091F30421E01C
:103EF00030E0378B268B118E108E923048F0DF0128
:103F0000A05BBF4F2D933C93EE5AFF4F118210825E
:103F100060E08FEC94E00E94870A61E08FEC94E00F
:103F20000E94870A62E08FEC94E00E94870A63E0B7
:103F30008FEC94E00E94870A8091AF03813009F0F2
:103F4000D8C00093AC032091B103822F8D7F8130C4
:103F500009F0D9C08091AB036AE00E941D24805D06
:103F60008093AD03905D9093AE03223009F4D0C0EE
:103F7000233009F45BC1213009F054C084E58093FB
:103F8000960389E6809397038DE68093980385E6F0
:103F9000809399031AE310939A03809191036AE046
:103FA0000E941D24805D80939B03905D90939C03F1
:103FB0000E94840740908B0350908C0360908D0387
:103FC00070908E036419750986099709693E7340DC
:103FD0008105910510F010939D030E9484076419D8
:103FE000750986099709613D77408105910568F05B
:103FF00080E280939D030E94840760938B037093FB
:104000008C0380938D0390938E03809190036AE0DC
:104010000E941D24805D80939E03905D90939F037A
:104020001092A0038EEA94E00E940508892B09F4FF
:1040300013C165E070E080E090E00E94520710E05C
:104040008EEA94E00E940508892B09F405C18EEAE6
:1040500094E00E941D08E12FF0E0E95CFD4F8083B1
:104060001F5FEECF9923D1F0E091F204F091F304B9
:10407000238534852630310551F0923040F0DF0140
:10408000AB5BBF4F8D919C91069709F04BCFD78AC0
:10409000C68AD18EC08ECF010E9452128091F50443
:1040A000823078F08091F2049091F304FC01E05B9F
:1040B000FF4FD182C0823296D182C082CA960E94BE
:1040C000521260E08FEC94E00E94870A61E08FEC6E
:1040D00094E00E94870A8091B003811104C081E0BE
:1040E0008093B0031FCF1092B00381E08093B1039F
:1040F00019CF823021F43EE53093AC0324CF8EE11A
:104100008093AC0320CF1092AD031092AE032DCF5D
:104110008091AB038630D8F591E3909396039CE7AA
:104120009093970322E3209398039093990323E3BA
:1041300020939A0390939B0324E320939C039093F2
:104140009D0395E390939E0310929F038330B9F0F3
:1041500048F4813081F0823009F064CF86E18093A9
:10416000980360CF843079F0853009F05BCF89E126
:1041700080939E0357CF85E18093960353CF87E1C9
:1041800080939A034FCF88E180939C034BCF9AEFA3
:10419000980F943020F192E29093960391E29093DD
:1041A000970323E2209398039093990324E22093AA
:1041B0009A0390939B0395E290939C0310929D0326
:1041C0008B3081F128F48A3009F02CCF86E2D4CFED
:1041D0008C3051F18D3009F025CF89E2D5CF96E3AF
:1041E000909396039CE79093970327E3209398037B
:1041F0009093990328E320939A0390939B0399E368
:1042000090939C0310929D03883041F0893041F0D7
:10421000873011F08AE1B0CF8BE1A1CF8CE1B0CF34
:104220008DE1B2CF87E29BCF88E2AACFA6E9B3E0C7
:104230002091AB03E4E12E9F9001112490E080E0F7
:10424000FC01E20FF31FE15AFD4F40814D930196AF
:1042500084319105A9F7E6CE6AE471E087E392E044
:104260000E948C25892B09F450C020913B029AE0D2
:1042700080913C028051299F800D11248093360249
:1042800080913E02805120913D02299F800D112492
:104290008093350220913F02809140028051299FF6
:1042A000800D112480933402809141028053883024
:1042B00008F049C2809333028091430280512091DB
:1042C00042029AE0299F800D1124809332022091AE
:1042D0004402809145028051299F800D11248093D2
:1042E000310280914702805120914602299F800D22
:1042F00011248093300281E080932F02E7E3F2E003
:10430000119222E0EF35F207D9F780912F0288232E
:1043100009F4A3C0809130029091310220913202C1
:10432000309133024091340250913502609136024F
:10433000609391035093900340938F0330939203C3
:10434000209393039093940380939503FF24F39415
:10435000F092D60388E68093F70310929D041092A2
:104360009C0460E080EA94E00E94BE0860E880EA75
:1043700094E00E94BE08809190031AE0612F0E9491
:104380001D248295807F682F690F80EA94E00E9447
:10439000BE0880919103612F0E941D248295807F29
:1043A000682F690F80EA94E00E94BE088091920312
:1043B000612F0E941D248295807F682F690F80EAFB
:1043C00094E00E94BE0880919303612F0E941D24F7
:1043D0008295807F682F690F80EA94E00E94BE0872
:1043E00080919403612F0E941D248295807F682F05
:1043F000690F80EA94E00E94BE08809195038E5177
:10440000612F0E941D248295807F682F690F80EAAA
:1044100094E00E94BE0881E00E94D10481111BC07B
:10442000F092D60310929D0410929C0460E080EA02
:1044300094E00E94BE0880918F03612F0E941D248A
:104440008295807F682F690F80EA94E00E94BE0801
:1044500081E00E94D10410922F020E9484072091D3
:104460002B0230912C0240912D0250912E02621BA2
:10447000730B840B950B693E73408105910508F41D
:10448000B7C081E08093D60388E68093F70310924B
:104490009D0410929C0460E080EA94E00E94BE08B3
:1044A00081E00E94D104811199C090919B049111E7
:1044B000FCCF91E090939B0490939A042FEF20936C
:1044C000D5031092D40326E02093D3039093B20334
:1044D0009091B203906D9093B203909199049130B2
:1044E00009F033C1109299049091B2039093BB00EC
:1044F0009091BC0093FDF8CF95EC9093BC00909107
:104500009B049130E1F39091D403973008F01FC1E0
:104510009091D403E3EBF3E0ABE0B2E0891319C16F
:1045200010929F0480939E04873008F457C080EA5D
:1045300094E00E947E08982F929597701AE08F70F1
:10454000919F800D112480938F0380EA94E00E9454
:104550007E08982F929597708F70919F800D1124EF
:104560008093900380EA94E00E947E08982F9295B1
:1045700093708F70919F800D11248093910380EA36
:1045800094E00E947E0887708093920380EA94E012
:104590000E947E0884FB992790F98F70919F800D6F
:1045A00011248093930380EA94E00E947E08982F60
:1045B00092959F708F70919F800D1124809394032A
:1045C00080EA94E00E947E08982F92959F708F70E9
:1045D000825E919F800D1124809395030E94840731
:1045E00060932B0270932C0280932D0290932E02E5
:1045F0006FE471E087E392E00E948C25892B09F437
:1046000072C080913C0210913D0210519AE0899F46
:10461000100D11241BA21AA282E1AEA9BFA91D92FE
:104620008A95E9F7212F30E050E040E019A27E01A1
:10463000B1E2EB0EF11CCA01B9012AE030E040E022
:1046400050E00E94FB23605DF70162937F0121151A
:1046500031054105510579F7309761F0019000204F
:10466000E9F73197AF014E195F09B70188EF93E081
:104670000E94A305EFE3F2E034018191D3018D9311
:104680003D0128AD39ADA217B307B9F754018AAD82
:104690009BAD34E1139F800D911D1124DC015497D3
:1046A0007D01F50161915F01C7018E0F9F1F0E947F
:1046B000ED2365E070E080E090E00E9452076A140C
:1046C0007B0479F764E170E080E090E00E9452079B
:1046D000812F0E941718E7E3F2E011922FE532E0F4
:1046E0002E173F07D1F765E571E087E392E00E945E
:1046F0008C25892BD9F069E571E087E392E00E946F
:104700008C25892B51F190913F028091400280517C
:104710003AE0939F800D11248093AB03E7E3F2E02E
:1047200011928FE592E08E179F07D1F7A0E0B0E0DD
:10473000AB2B09F4B3CB0E940D06882309F4ADCB53
:104740000E940000AACB81E0B5CD95EED6CE97E0D1
:10475000E1CE21912D938F5FE1CE6EE571E087E38D
:1047600092E00E948C25892B21F081E08093AF0399
:10477000D5CF64E671E087E392E00E948C25892B17
:1047800011F082E0F3CF6BE671E087E392E00E94E4
:104790008C25892B19F01092AF03C0CF60E771E030
:1047A00087E392E00E948C25892B21F082E08093A0
:1047B000B103B4CF66E771E087E392E00E948C25F5
:1047C000892B09F4ABCF83E0F2CFF999FECF92BDEC
:1047D00081BDF89A992780B50895262FF999FECFC3
:1047E0001FBA92BD81BD20BD0FB6F894FA9AF99A0E
:1047F0000FBE01960895A1E21A2EAA1BBB1BFD0154
:104800000DC0AA1FBB1FEE1FFF1FA217B307E407AF
:10481000F50720F0A21BB30BE40BF50B661F771F07
:10482000881F991F1A9469F76095709580959095E7
:104830009B01AC01BD01CF010895991B79E004C033
:10484000991F961708F0961B881F7A95C9F78095CF
:10485000089597FB072E16F4009407D077FD09D032
:104860000E94432407FC05D03EF4909581959F4F0C
:104870000895709561957F4F0895EE0FFF1F059085
:10488000F491E02D0994AA1BBB1B51E107C0AA1F9C
:10489000BB1FA617B70710F0A61BB70B881F991FE1
:1048A0005A95A9F780959095BC01CD0108950F9375
:1048B0001F93CF93DF938230910510F482E090E054
:1048C000E091F804F091F90430E020E0B0E0A0E0DD
:1048D000309799F42115310509F44AC0281B390B8A
:1048E00024303105D8F58A819B816115710589F1E4
:1048F000FB0193838283FE0111C0408151810281BB
:10490000138148175907E0F04817590799F4109791
:1049100061F012960C93129713961C933296CF0166
:10492000DF91CF911F910F9108950093F804109398
:10493000F904F4CF2115310551F04217530738F02F
:10494000A901DB019A01BD01DF01F801C1CFEF012F
:10495000F9CF9093F9048093F804CDCFFE01E20FD4
:10496000F31F819391932250310939832883D7CF44
:104970002091F6043091F704232B41F42091020199
:10498000309103013093F7042093F6042091000145
:10499000309101012115310541F42DB73EB7409109
:1049A000040150910501241B350BE091F604F091B0
:1049B000F704E217F307A0F42E1B3F0B2817390763
:1049C00078F0AC014E5F5F4F2417350748F04E0F6B
:1049D0005F1F5093F7044093F604819391939FCF08
:1049E000F0E0E0E09CCFCF93DF930097E9F0FC018B
:1049F000329713821282A091F804B091F904ED016C
:104A000030E020E01097A1F420813181820F931FC4
:104A10002091F6043091F7042817390709F061C096
:104A2000F093F704E093F604DF91CF910895EA0143
:104A3000CE17DF07E8F54A815B819E0141155105DC
:104A4000B1F7E901FB83EA8349915991C40FD51F5E
:104A5000EC17FD0761F4808191810296840F951F08
:104A6000E90199838883828193819B838A83F0E023
:104A7000E0E012968D919C9113970097B9F52D91D6
:104A80003C911197CD010296820F931F2091F6045D
:104A90003091F7042817390739F6309751F51092FD
:104AA000F9041092F804B093F704A093F604BCCF75
:104AB000D383C28340815181840F951FC817D907C2
:104AC00061F44E5F5F4F88819981480F591F518370
:104AD00040838A819B81938382832115310509F06C
:104AE000B0CFF093F904E093F8049ECFFD01DC0110
:104AF000C0CF13821282D7CFFB01DC0102C001902C
:104B00000D9241505040D8F70895DC0101C06D93DB
:104B100041505040E0F70895FB0151915523A9F011
:104B2000BF01DC014D9145174111E1F759F4CD0169
:104B30000190002049F04D9140154111C9F3FB014E
:104B40004111EFCF81E090E00197089514E0C4EAAD
:104B5000D4E004C0FE010E943D242196C53AD1074D
:064B6000C9F7F894FFCF35
:104B66000000FA048000000000004306A305D005FB
:104B760090060106DF05F30500000000BE08910857
:104B8600540AA8079C057E086F0800000000A907C4
:104B9600A305540AA80705081D0890070000000091
:104BA6003B0A8B12540A530AEF1754494D450046E7
:104BB6004C4F4F52005345540043616C6C005255A4
:104BC6004E55500052554E444F570053544F5000C7
:0C4BD6004D4F444532004D4F4445330024
:107E0000112484B714BE81FFF0D085E080938100F7
:107E100082E08093C00088E18093C10086E0809377
:107E2000C20080E18093C4008EE0C9D0259A86E02C
:107E300020E33CEF91E0309385002093840096BBD3
:107E4000B09BFECF1D9AA8958150A9F7CC24DD24C4
:107E500088248394B5E0AB2EA1E19A2EF3E0BF2EE7
:107E6000A2D0813461F49FD0082FAFD0023811F036
:107E7000013811F484E001C083E08DD089C08234E0
:107E800011F484E103C0853419F485E0A6D080C0E4
:107E9000853579F488D0E82EFF2485D0082F10E0AE
:107EA000102F00270E291F29000F111F8ED06801E7
:107EB0006FC0863521F484E090D080E0DECF843638
:107EC00009F040C070D06FD0082F6DD080E0C81688
:107ED00080E7D80618F4F601B7BEE895C0E0D1E017
:107EE00062D089930C17E1F7F0E0CF16F0E7DF06D8
:107EF00018F0F601B7BEE89568D007B600FCFDCFD4
:107F0000A601A0E0B1E02C9130E011968C91119780
:107F100090E0982F8827822B932B1296FA010C0160
:107F200087BEE89511244E5F5F4FF1E0A038BF0790
:107F300051F7F601A7BEE89507B600FCFDCF97BE46
:107F4000E89526C08437B1F42ED02DD0F82E2BD052
:107F50003CD0F601EF2C8F010F5F1F4F84911BD097
:107F6000EA94F801C1F70894C11CD11CFA94CF0C13
:107F7000D11C0EC0853739F428D08EE10CD085E9AC
:107F80000AD08FE07ACF813511F488E018D01DD067
:107F900080E101D065CF982F8091C00085FFFCCF94
:107FA0009093C60008958091C00087FFFCCF809118
:107FB000C00084FD01C0A8958091C6000895E0E648
:107FC000F0E098E1908380830895EDDF803219F02E
:107FD00088E0F5DFFFCF84E1DECF1F93182FE3DFCA
:107FE0001150E9F7F2DF1F91089580E0E8DFEE27F6
:047FF000FF270994CA
:027FFE00040479
:0400000300007E007B
:00000001FF
