:100000000C948D050C94B5050C94B5050C94001B4F
:100010000C94001B0C94001B0C94B5050C94B505B6
:100020000C94B5050C94B5050C94B5050C94B50568
:100030000C94B5050C94971C0C94B5050C94B5055F
:100040000C94B61A0C94B5050C94841A0C945E1A90
:100050000C94B5050C94B5050C94B5050C94B50538
:100060000C94781B0C94B5050000000800020100F8
:100070000003040700000000000000000000000072
:10008000240027002A004602000000FF08000EFF9F
:10009000FFE0C08F9F9F9F9F8FC0E0FFFF0EFFFF7D
:1000A000FFFF9F9F80809F9FFFFFFFFF0EFFFF9F2F
:1000B0008F878391989C9E9F9FFFFF0EFFFFE7C74E
:1000C0008F9F9F9E9E8EC0E1FFFF0EFFFFF8F8F905
:1000D000F9F9F98080F9F9FFFF0EFFFFE7C78F9F5D
:1000E0009F9F9F8FC0E0FFFF0EFFFFE0C08F9F9F8D
:1000F0009F9F8EC0E0FFFF0EFFFFFFFFFF8080FE8F
:10010000FFFFFFFFFFFF0EFFFFE1C08C9E9E9E9E44
:100110008CC0E1FFFF0EFFFFFFFF9E9E8EC6E2F048
:10012000F8FCFFFF140060607F7F606000001F3FED
:100130007060606060703F1F001400000060607FAE
:100140007F606000000060607F7F606000001400DE
:1001500060607F7F606000006070787C6E676361C4
:10016000606000140060607F7F606000001838707D
:1001700060606161713F1E0014FF9F9F80809F9FA0
:10018000FFFFE0C08F9F9F9F9F8FC0E0FF14FFFF86
:10019000FF9F9F80809F9FFFFFFF9F9F80809F9F6B
:1001A000FFFF14FF9F9F80809F9FFFFF9F8F87838C
:1001B00091989C9E9F9FFF14FF9F9F80809F9FFF11
:1001C000FFE7C78F9F9F9E9E8EC0E1FF1200000039
:1001D000007F7F7F7F7F7F00000000000000001213
:1001E00002060E1E3F7FFFFF7F3F1E0E060200002D
:1001F00000000800000000000000000C00000000EB
:1002000000000000000000001200000000000000DC
:10021000000000000000000000000012000040602C
:1002200070787C7E7C7870604000000000001200D6
:100230000002060E1E3E7E3E1E0E0602000000005C
:10024000000A0000000000000000000010071F3F2F
:100250007C7CFCFCFCFCFCFC7C7C3F1F0700000061
:100260000004000000000200000600000000000082
:100270000A06067F7F06067F7F06060A30706161E8
:10028000FFFF61733F1E0A0060781E070130787817
:10029000300A1E3F736161673F1C7E6602000005E5
:1002A000071F3C70600560703C1F070A03030100D4
:1002B0000F0F000103030A010101011F1F010101CA
:1002C000010260E00A0101010101010101010102D5
:1002D00060600860781E07010000000A1F3F706020
:1002E000606060703F1F0A000060607F7F60600098
:1002F000000A6070787C6E67636160600A1838700D
:1003000060606161713F1E0A0707060606067F7F6F
:1003100006060A18387060606060703F1F0A1F3F51
:100320007060606060713F1F0A0000007F7F010005
:100330000000000A1E3F7361616161733F1E0A0085
:1003400000616171391D0F070304000C0C0002618C
:10035000E1080103070E1C3870600A0C0C0C0C0C31
:100360000C0C0C0C0C086070381C0E0703010A0002
:100370000000006F6F010000000A1F3F70676F6F81
:100380006F6C6F27097F7F06060606067F7F097F51
:100390007F61616161733F1E091F3F606060607033
:1003A0003818097F7F60606060703F1F087F7F6141
:1003B0006161616160087F7F010101010100091F26
:1003C0003F70606061713F1F097F7F010101010182
:1003D0007F7F0660607F7F606008183870606070A3
:1003E0003F1F097F7F03070E1C387060087F7F6006
:1003F00060606060600A7F7F0000000000007F7F17
:100400000A7F7F000001071C307F7F091F3F70605B
:100410006060703F1F097F7F010101010100000939
:100420001F3F70606C7C387F6F097F7F03070F1D53
:1004300039706009307061616161733F1E0A0000AC
:1004400000007F7F00000000091F3F706060607047
:100450003F1F0A070F1C387070381C0F070A1F3F18
:1004600070783E3E78703F1F0A787C0E07030307C2
:100470000E7C780A000000007F7F000000000A78F0
:100480007C6E67636160606060047F7F606008000D
:10049000000001071E78600460607F7F0A00000092
:1004A000000000000000000AC0C0C0C0C0C0C0C042
:1004B000C0C00300000008183C666666667F3F08FF
:1004C0007F7F606060703F1F081F3F706060703901
:1004D00019081F3F706060607F7F081F3F76666667
:1004E00076371307017F7F01010000082367EECCF8
:1004F000CCEC7F3F087F7F000000007F7F027F7F82
:10050000081838706060703F1F087F7F0E0F1F391A
:1005100070600660607F7F60600A7F7F00007F7F81
:1005200000007F7F097F7F01000000007F7F081FA0
:100530003F706060703F1F08FFFF1818181C0F07FE
:1005400008070F1C181818FFFF087F7F0100000024
:1005500000010831736666667E3C180800001F3F84
:1005600070703818081F3F706060703F1F08070FD9
:100570003C78783C0F070A1F3F70703E3E70703F1A
:100580001F0A6070391F0F0F1F397060080307CEF4
:10059000CCCCEC7F3F0A6070787C6E6763616060F2
:1005A0000601031F3E706002FFFF0660703E1F03DE
:1005B000010000000EFFFF0703F1F9F9F9F9F1035B
:1005C00007FFFF0EFFFFFFFFE7E30101FFFFFFFF54
:1005D000FFFF0EFFFFE7E3F1F9F9F979310387FF38
:1005E000FF0EFFFFE7E3F1F9F97979710387FFFF68
:1005F0000EFFFF7F3F1F8FC7E30101FFFFFFFF0ECD
:10060000FFFF81819999999999193979FFFF0EFF17
:10061000FF070339393939393973F7FFFF0EFFFF07
:10062000F9F9F9F979391989C1E1FFFF0EFFFFC71F
:100630008331797979793183C7FFFF0EFFFF870313
:100640003179797979310307FFFF1400181CFEFE18
:1006500000000000F8FC0E060606060EFCF800146A
:10066000000000181CFEFE0000000000181CFEFE2A
:10067000000000001400181CFEFE00000000181C02
:100680000E06060686CEFC78001400181CFEFE003E
:10069000000000181C0E060686868EFC780014FFEB
:1006A000E7E30101FFFFFFFF0703F1F9F9F9F9F1B2
:1006B0000307FF14FFFFFFE7E30101FFFFFFFFFF59
:1006C000E7E30101FFFFFFFF14FFE7E30101FFFF85
:1006D000FFFFE7E3F1F9F9F979310387FF14FFE749
:1006E000E30101FFFFFFFFE7E3F1F9F97979710316
:1006F00087FF1280C0E0F0F8FCFEFEFCF8F0E0C0DE
:1007000080000000001200000000FEFEFEFEFEFE63
:1007100000000000000000000800000000000000D1
:10072000000C0000000000000000000000001200AB
:1007300000000000000000000000000000000000B9
:1007400000120000406070787C7E7C787060400011
:100750000000000012000002060E1E3E7E3E1E0E2D
:10076000060200000000000A000000000000000077
:10077000000010E0F8FC3E3E3F3F3F3F3F3F3E3E23
:10078000FCF8E00000000004000000000200000689
:100790000E0E00000E0E0A6060FEFE6060FEFE603F
:1007A000600A78FCCE86FFFF86860E0C0A0C1E1EA1
:1007B0000C80E0781E06000A000098FCE6E63C1873
:1007C0000000020E0E05E0F83C0E0605060E3CF891
:1007D000E00A18B8F0E0FEFEE0F0B8180A80808069
:1007E00080F8F8808080800200000A80808080800D
:1007F00080808080800200000800000080E0781E79
:10080000060AF8FC0E060606060EFCF80A0000189A
:100810001CFEFE000000000A181C0E06060686CE0E
:10082000FC780A181C0E060686868EFC780A80C0A4
:10083000E070381CFEFE00000A7E7E666666666614
:10084000E6C6860AF8FCC6C6C6C6C6C68C080A0630
:1008500006060686C6E6763E1E0A387CCE86868664
:1008600086CE7C380A78FCCE86868686CEFCF80456
:10087000003030000280800880C0E070381C0E0616
:100880000A3030303030303030303008060E1C380E
:1008900070E0C0800A181C0E06068686CEFC780A18
:1008A000F8FC0EE6F6F6E60EFCF809F8FC0E060675
:1008B000060EFCF809FEFE86868686CEFC7809F8D0
:1008C000FC060606060E1C1809FEFE060606060EA7
:1008D000FCF808FEFE86868686860608FEFE86866C
:1008E0008686860609F8FC0E0606868E9C9809FE0A
:1008F000FE8080808080FEFE060606FEFE0606085C
:10090000060606060606FEFE09FEFEC0E070381C5E
:100910000E0608FEFE0000000000000AFEFE1C3865
:10092000F0F0381CFEFE0AFEFE1C70C0000000FE47
:10093000FE09F8FC0E0606060EFCF809FEFE868689
:100940008686CEFC7809F8FC0E0606060EFCF80931
:10095000FEFE86868686CEFC780978FCCE86868664
:10096000860E0C0A06060606FEFE0606060609FEAA
:10097000FE0000000000FEFE0AFEFE000000000077
:1009800000FEFE0AFEFE000000000000FEFE0A1E41
:100990003E30E0C0C0E0703E1E0A1E3E70E0C0C0A7
:1009A000E0703E1E0A0606060686C6E6763E1E0471
:1009B000FEFE060608061E78E0800000000406061B
:1009C000FEFE0A6070381C0E0E1C3870600A0000B3
:1009D000000000000000000003061E180800C0E030
:1009E0006060E0C08008FEFE606060E0C08008805B
:1009F000C0E06060E0C0800880C0E0606060FEFE33
:100A00000880C0E06060E0C0800780F8FC8E8E1C2B
:100A1000180880C0E0606060E0E008FEFE60606092
:100A2000E0C08002ECEC08000000000000E6E608F0
:100A3000FEFE000080C0E060060606FEFE00000A22
:100A4000E0E06060E0E06060E0C009E0E0C0E0603D
:100A500060E0C0800880C0E06060E0C08008E0E046
:100A6000606060E0C0800880C0E0606060E0E00836
:100A7000E0E0C0E06060E0C00880C060606060C02E
:100A8000C0086060FEFE6060606008E0E00000009A
:100A900000E0E008E0E000000000E0E00AE0E00044
:100AA0000000000000E0E00A60E0C080000080C0BC
:100AB000E06008E0E000000000E0E00A60606060E4
:100AC0006060E0E0E0600680C0F87C0E0602FFFF98
:100AD00006060E7CF8C080000000000000230026FF
:100AE00000290000000000250028002B0004040459
:100AF00004040404040202020202020303030303C7
:100B000003010204081020408001020408102001A3
:100B1000020408102000221DBE1C11241FBECFEFAE
:100B2000D8E0DEBFCDBF11E0A0E0B1E0E0E3F1E549
:100B300002C005900D92A03EB107D9F725E0A0EEC6
:100B4000B1E001C01D92AC39B207E1F715E0CCE885
:100B5000D5E004C02197FE010E941B27CB38D107A6
:100B6000C9F70E94591E0C948B280C94000008951C
:100B70000895982F2091580481E0213208F043C055
:100B8000809157048111FCCF8091B30332E0309300
:100B90005704909356049FEF909391031092900303
:100BA00020938F03A3E9B3E0EFE6F3E090E029138D
:100BB00031C010926E0390916E03880F892B809341
:100BC0006E0380915504813049F51092550480914F
:100BD0006E038093BB008091BC0083FDF8CF85EC51
:100BE0008093BC00809157048230E1F3809191039F
:100BF0008F3FB1F0809191038032A1F080919103F9
:100C0000803391F084E010925904109258041092AD
:100C1000920308953D9131939F5FC9CF85EEE0CF58
:100C200080E0F1CF82E0EFCF83E0EDCF829590E0DE
:100C30009C0135952795359527952373880F991F26
:100C4000880F991F8C7C282B30E0C90195958795DA
:100C50008575220F331F2A7A822B0895CF93DF9355
:100C6000262F2695382F70E0680F791FFC018E2FF4
:100C7000831B821750F4819161507109DB019C91B3
:100C8000EF01219798838C93F2CFDF91CF91089554
:100C9000482FFC018E2F841B8617E0F4219130E051
:100CA000C901959587958575220F331F2A7A822B66
:100CB00090E09C0135952795359527952373880FEE
:100CC000991F880F991F8C7C822B8295DF011197C9
:100CD0008C93E0CF089580915A0490915B04891B16
:100CE000990B0895AF92BF92CF92DF92EF92FF924D
:100CF0000F931F93CF93DF936C017B018B01040F44
:100D0000151FEB015E01AE18BF08C017D10759F0DF
:100D10006991D601ED91FC910190F081E02DC60121
:100D20000995892B79F7C501DF91CF911F910F911B
:100D3000FF90EF90DF90CF90BF90AF900895FC01AF
:100D4000538D448D252F30E0842F90E0821B930B30
:100D5000541710F0CF96089501970895FC01918DD6
:100D6000828D981761F0A28DAE0FBF2FB11D5D96D9
:100D70008C91928D9F5F9F73928F90E008958FEF7B
:100D80009FEF0895FC01918D828D981731F0828D2F
:100D9000E80FF11D858D90E008958FEF9FEF089586
:100DA000FC01918D228D892F90E0805C9F4F821BEA
:100DB00091098F739927089584EB93E00E94D006E0
:100DC00021E0892B09F420E0822F089580E090E053
:100DD000892B29F00E94DC0681110C9400000895F3
:100DE000FC01A48DA80FB92FB11DA35ABF4F2C91A0
:100DF000848D90E001968F739927848FA689B78997
:100E00002C93A089B1898C91837080648C93938D8D
:100E1000848D981306C00288F389E02D80818F7D30
:100E200080830895EF92FF920F931F93CF93DF93E8
:100E3000EC0181E0888F9B8D8C8D98131AC0E88916
:100E4000F989808185FF15C09FB7F894EE89FF89E5
:100E50006083E889F98980818370806480839FBF83
:100E600081E090E0DF91CF911F910F91FF90EF9083
:100E70000895F62E0B8D10E00F5F1F4F0F73112793
:100E8000E02E8C8D8E110CC00FB607FCFACFE889CE
:100E9000F989808185FFF5CFCE010E94F006F1CF60
:100EA000EB8DEC0FFD2FF11DE35AFF4FF0829FB742
:100EB000F8940B8FEA89FB8980818062CFCFCF9332
:100EC000DF93EC01888D8823B9F0AA89BB89E88972
:100ED000F9898C9185FD03C0808186FD0DC00FB618
:100EE00007FCF7CF8C9185FFF2CF808185FFEDCF96
:100EF000CE010E94F006E9CFDF91CF91089590E0F6
:100F0000FC01E859FF4F2491FC01EF5FF44F34914D
:100F1000FC01E351F54FE491EE23C9F0222339F0AF
:100F2000233001F1A8F4213019F1223029F1F0E049
:100F3000EE0FFF1FED51F54FA591B4918FB7F894C7
:100F4000EC91611126C030953E233C938FBF0895EC
:100F50002730A9F02830C9F0243049F7809180006B
:100F60008F7D03C0809180008F7780938000DFCFDA
:100F700084B58F7784BDDBCF84B58F7DFBCF809127
:100F8000B0008F778093B000D2CF8091B0008F7D7A
:100F9000F9CF3E2BDACFCF93DF9390E0FC01EF5FE8
:100FA000F44F24918351954FFC0184918823D1F013
:100FB00090E0880F991FFC01E458FF4FA591B49170
:100FC000FC01ED51F54FC591D49161110EC09FB751
:100FD000F8948C91E22FE0958E238C932881E22364
:100FE000E8839FBFDF91CF9108958FB7F894EC917C
:100FF000E22BEC938FBFF6CF3FB7F8948091690254
:1010000090916A02A0916B02B0916C0226B5A89BE8
:1010100005C02F3F19F00196A11DB11D3FBFBA2F8A
:10102000A92F982F8827BC01CD01620F711D811D4A
:10103000911D42E0660F771F881F991F4A95D1F7CF
:1010400008958F929F92AF92BF92CF92DF92EF92CC
:10105000FF924B015C010E94FC076B017C010E9426
:10106000FC076C197D098E099F09683E7340810554
:101070009105A8F321E0821A9108A108B10888EE31
:10108000C80E83E0D81EE11CF11C81149104A10458
:10109000B10429F7FF90EF90DF90CF90BF90AF9011
:1010A0009F908F90089520916804309169042817CB
:1010B000390771F490916D0280916E02981741F09A
:1010C000E0916D02F0E0EC5DFD4F808190E00895CD
:1010D0008FEF9FEF08950895EF92FF920F931F9364
:1010E000CF93DF93DC015C96ED90FC905D97E1146B
:1010F000F10479F481E090E013969C938E9312971B
:1011000090E080E0DF91CF911F910F91FF90EF90E1
:1011100008955196ED91FC91529750968C9150976D
:10112000982F90950FB75E962C915E97122F1270A4
:1011300021FD6095F8942081112319F1282B20833B
:10114000E7012197F1F728E0462F50E0308160FF5A
:101150001AC0382B3083E7012197F1F7BA01759552
:101160006795215089F7112381F08081892380833D
:101170000FBF5C968D919C910197F1F781E090E013
:10118000C1CF2923DCCF3923E5CF9081892BEFCF45
:1011900020916804309169042817390771F480910F
:1011A0006E0220916D0290E0805C9F4F821B91093E
:1011B00060E470E00E940727089590E080E00895C1
:1011C000209168043091690428173907B9F4909187
:1011D0006D0280916E02981789F0E0916D02F0E047
:1011E000EC5DFD4F808120916D0230E02F5F3F4F1D
:1011F0002F73332720936D0290E008958FEF9FEFB8
:10120000089585ED8093BC008091BC0084FDFCCFE7
:1012100010925704089520910102260F3327331F9F
:1012200021323105ECF420915704FC0190E080E07C
:10123000243069F082E00895A09101022191AC016F
:101240004F515E4FA40FB52FB11D2C9301968617F9
:1012500098F380910102680F6093010280E0089585
:1012600081E00895E0915B0480915A04E81730F41E
:10127000F0E0E958FD4F808190E008958FEF9FEFF7
:10128000089590915B0480915A042FEF3FEF9817D7
:1012900048F4E92FF0E0E958FD4F208130E09F5FEE
:1012A00090935B04C9010895CF92DF92EF92FF9271
:1012B0000F931F93CF93DF937C01CB018A01209181
:1012C0009203222389F0EB016B01C40ED51ECC15CD
:1012D000DD0569F06991D701ED91FC910190F081F4
:1012E000E02DC7010995F3CF642F0E940B09C801B7
:1012F000DF91CF911F910F91FF90EF90DF90CF90F2
:101300000895CF93DF931F92CDB7DEB76983209105
:1013100092032223F9F020915804203258F021E062
:1013200030E0FC013383228390E080E00F90DF9176
:10133000CF91089580915904E82FF0E0ED56FC4FCD
:10134000998190838F5F809359048093580481E042
:1013500090E0ECCF61E0CE0101960E940B09F7CF3F
:10136000CF93DF9300D0CDB7DEB769831A82DC015B
:10137000ED91FC910084F185E02DBE016F5F7F4F00
:10138000099581E090E00F900F90DF91CF91089543
:10139000089590E080E00895FC01828D968DA4A5CB
:1013A000B5A591FD15C0882381F086899789059799
:1013B000A9F481E022A533A52A173B0709F080E0B4
:1013C00086A71197B5A7A4A70895808D918DEFCF1B
:1013D000882379F086899789059759F7CD01019679
:1013E00095A784A781E011969C91911180E086A732
:1013F0000895808D918DF0CFCF92DF92EF92FF9282
:101400001F93CF93DF93DC0156961C92569788E08A
:1014100057968C93579758961C9258975A961C92A9
:101420001E9259978FEF90E05C969C938E935B97FA
:101430005E961C921E925D9754968D919C91559745
:10144000009709F478C0FC012491263409F031C0DA
:101450003196E491E13009F453C022E030E0E2300B
:1014600021F5FC01329624913196E49130E0322F3F
:1014700022272E0F311D5A963C932E935997FC012B
:10148000349624913196E49130E0322F22272E0FAA
:10149000311D5C963C932E935B97FC013696E4914C
:1014A0005796EC93579727E030E05E963C932E9347
:1014B0005D975D96CD90DC905E97F12CE12C59966E
:1014C0002D913C915A975B96CD91DC915C9710E001
:1014D000C217D30770F1FC01EC0DFD1D44911417E8
:1014E00008F4142F50E070E060E04F5F5F4F6F4FE3
:1014F0007F4FC40ED51EE61EF71E2F5F3F4FE8CF6D
:10150000FC013296E491F0E05A96FC93EE935997E1
:10151000FC013396E491F0E05C96FC93EE935B97CC
:10152000FC013496E4915796EC93579725E030E010
:10153000BCCF58961C93DF91CF911F91FF90EF90F5
:10154000DF90CF900895FC018185681738F52285DA
:10155000338579E0679F200D311D1124848150E08F
:101560009381992371F0882331F087E090E0FC01AA
:10157000E41BF50BAF01240F351FF90180810C949A
:101580001606882331F087E090E0BC01641B750BE0
:10159000AB01240F351FF9018081089580E0089583
:1015A0008F929F92AF92BF92CF92DF92EF92FF9273
:1015B000CF93DF93FC01242F30E08381882309F44B
:1015C00047C087E090E0821B930B91E001C0990F28
:1015D0008A95EAF78185681708F040C0228533852F
:1015E000A90189E0689F400D511D1124BA01E481D1
:1015F00030E020E080E0A7E0B0E0C12CD12C760103
:10160000C394F22FAD01421B530BE11101C0A9019C
:10161000460F571FEA014881492351F046015701FF
:1016200004C0880C991CAA1CBB1CFA95D2F7882907
:101630002F5F3F4F2830310521F7DF91CF91FF9089
:10164000EF90DF90CF90BF90AF909F908F900895D4
:1016500091E001C0990F4A95EAF7BCCF80E0EDCF49
:10166000FC01228121110C94D00A0C94A30A462F6C
:1016700047706695669566950C94300B0895FC014D
:10168000DB019D91BD01992319F090689193F8CFEA
:1016900010820895FC01E45FFE4F2081621740F440
:1016A0002AE3629F800D911D1124FC0117A616A646
:1016B00008950F931F93FC01E45FFE4F708167173D
:1016C00058F4DC017AE3679FA00DB11D11249396B5
:1016D0009B965C934E939A974081641750F4DC017B
:1016E0004AE3649FA00DB11D1124D8963C932E931C
:1016F000D7972081621750F4DC017AE3679FA00D31
:10170000B11D11249B961C930E939A97208162170A
:1017100050F4DC012AE3629FA00DB11D11249D96B7
:101720001C921E929C972081621760F421E030E0A9
:10173000FC014AE3649FE00DF11D112432AF21AF9B
:1017400014AE13AE1F910F910C944A0BAF92BF923F
:10175000CF92DF92EF92FF920F931F93CF93DF937D
:10176000EC0188858823A1F080918904882361F0A9
:101770008FB7F89490918904913049F59DB3909377
:10178000E0019DB39DBB8FBF80E58CBD81E08DBD29
:1017900060E08F810E947F0788858823D9F030E040
:1017A00020E0898590E0880F991F2817390708F0F5
:1017B0003FC0EC85FD85E20FF31F80818EBD0000E8
:1017C0000DB407FEFDCF8EB52F5F3F4FEACF80935C
:1017D000E001DACF10E000E0898590E0880F991FE2
:1017E0000817190728F5EC85FD85E00FF11FC0806B
:1017F000BE80AD8087E0E82EF12CD12CB6010E2CF6
:1018000002C0759567950A94E2F761708A2D0E946F
:101810007F0761E08B2D0E947F0760E08B2D0E9487
:101820007F0781E0E81AF10848F70F5F1F4FD4CF18
:1018300061E08F810E947F078885882371F0809105
:101840008904882351F09FB7F894209189048091EE
:10185000E001213069F48DBB9FBFDF91CF911F91D3
:101860000F91FF90EF90DF90CF90BF90AF900895D1
:101870008FBFF3CF1F93CF93DF93EC01A881B98182
:1018800058961C918CA9180F89A9811768F48AA908
:101890009BA9009711F00E94D12719AB812F90E0EE
:1018A0000E9435279BAB8AABDF91CF911F910895A2
:1018B000CF93DF9390919705891700F59AE3899F5D
:1018C000F0011124EF01C255DB4FE557FB4FDF015B
:1018D000A55ABF4F1D921C9283A194A1FC0124899B
:1018E0003589232B31F026E830E0358B248B0E949C
:1018F000FC09CE01DF91CF910C943A0CDF91CF918E
:101900000895CF92DF92EF92FF920F931F93CF93A0
:10191000DF937C016B01EA01CA0101960E94352721
:101920008C010097F1F0AE01B6010E945A28F8012F
:10193000EC0FFD1F1082D701ED91FC910084F18521
:10194000E02DB801C7010995C8010E94D127CE0139
:10195000DF91CF911F910F91FF90EF90DF90CF908B
:101960000895D0E0C0E0F3CFCF92DF92EF92FF92E4
:101970000F931F93CF936C017B01C42F8901DC016E
:101980009F96ED91FC91309709F1808191818E15A0
:101990009F05C1F40280F381E02D80818C1708F44B
:1019A000C82F4C2F50E0BF016F5F7F4FC8010E94CE
:1019B0005A288C2FCF911F910F91FF90EF90DF90BD
:1019C000CF9008950480F581E02DDDCFF601808170
:1019D000918120AD31ADDC0154964D915C9124177D
:1019E000350751F02115310511F426E830E0FC01EE
:1019F000358B248B0E94FC090115110509F448C0A0
:101A0000D6012D913C91F901858D968DB0E0A0E035
:101A1000418D528DE416F506A0F1638D748D6E151F
:101A20007F0578F164897589FB01E80FF91FE416D9
:101A3000F50659F0E4918E0F911DA11DB11D01967F
:101A4000A11DB11D4F5F5F4FEFCF4491C41710F53B
:101A50000196A11DB11DA801801B910B642F601B75
:101A60006C1708F0A6CFBC01640F751FD9015496FE
:101A7000ED91FC91E60FF71FE491DA01ED93AD01D2
:101A8000EDCF4C2F50E070E060E0C8010E94632869
:101A9000C0E08FCFC491DCCF1F93CF93DF93EC01D5
:101AA000142F2AA93BA949A90E94B40C112389F03B
:101AB000882379F090E02CA9921758F429A982176D
:101AC00030F4EAA9FBA9E80FF11D10828F5F9F5F38
:101AD000F2CFDF91CF911F9108950F931F93CF9372
:101AE000DF93EC018B01ECA5FDA541E08181811123
:101AF00001C040E0608170E0CE010E944C0DF80111
:101B000080832E8D9A8D21FD10C0992359F02E8946
:101B10003F892530310581F4682F8AA99BA90E944D
:101B20002E060AC0288D398DF4CF9923B9F02E895D
:101B30003F892530310581F78E8D80FF06C0F80181
:101B400060818AA99BA90E944806CE010E94CC0907
:101B500081E0DF91CF911F910F910895288D398DEC
:101B6000E8CF0F931F93CF93DF93EC01FB0110821B
:101B7000AAA5BBA5BDA7ACA7109719F08C918111A0
:101B800008C081E08EA780E0DF91CF911F910F9177
:101B900008951EA68A8D9E8D91FD10C0882359F050
:101BA0008E899F89059781F40D900020E9F712979F
:101BB000BDA7ACA709C0888D998DF4CF882331F1DA
:101BC0008E899F89059781F7ACA5BDA541E0119647
:101BD0008C911197811101C040E08B016C9170E0F4
:101BE000CE010E944C0DF80180832E8D9A8D21FD2F
:101BF00013C0992371F02E893F892530310599F45E
:101C0000682F8AA99BA90E942E060DC0888D998DE8
:101C1000D9CF288D398DF1CF992399F02E893F891D
:101C20002530310569F78E8D80FF06C0F80160818F
:101C30008AA99BA90E944806CE010E94CC0981E096
:101C4000A3CF288D398DECCFFC01418550E0440FA6
:101C5000551F70E060E0848595850C946328CF92D1
:101C6000DF92EF92FF920F931F93CF93DF93EC01DC
:101C7000D62EC42E79010E94240ECD1408F457C02C
:101C800082E0E816F10409F444C048F4E114F104D8
:101C9000B1F0F1E0EF16F104A9F1D394EECF83E0B7
:101CA000E816F104E9F1E4E0EE16F104B1F781E0A1
:101CB0000115110509F480E0819599E006C081E0E5
:101CC0000115110509F080E09CE04D2D50E02985BB
:101CD0002150330B241B350B220F331F6C857D8560
:101CE000260F371FF901908329852150330B241BC0
:101CF000350B220F331F4C855D85240F351FF901ED
:101D00008183CBCF802F083011050CF087E09BE05A
:101D1000DCCF802F053011050CF084E09AE0D5CFA0
:101D200081E00115110509F480E09FE0CECFCE01DE
:101D30000E94A60B81E0DF91CF911F910F91FF9040
:101D4000EF90DF90CF900895BF92CF92DF92EF9205
:101D5000FF920F931F93CF93DF93FC0121856217AE
:101D600008F04EC0EC01F9E06F9F70011124D12CF6
:101D7000C12C062F10E0BB24B394BC0CEA85FB8574
:101D8000EE0DFF1D808590E00C2C02C09595879587
:101D90000A94E2F780FF27C0CE010E94240E8985B5
:101DA0008150990B801B910B880F991F2C853D85C5
:101DB000820F931FFC01B082EA85FB85EE0DFF1DAB
:101DC000EC0DFD1D408189858150990B801B910B85
:101DD000880F991F2C853D85820F931FFC0141833D
:101DE000CE010E94A60BFFEFCF1ADF0A88E0C816CB
:101DF000D10409F68A859B85E80EF91EF701108645
:101E0000DF91CF911F910F91FF90EF90DF90CF90D6
:101E1000BF9008950F931F93CF93DF93EC01162F7C
:101E2000042F822F9B8191110E94160699E0199F21
:101E300090011124AA85BB85A20FB31F602F70E00B
:101E40009C8147E050E0461B570B911101C0AB014C
:101E5000A40FB51F8C93EA85FB85E20FF31F208545
:101E60008C818823F1F047E050E0461B570B81E05E
:101E700090E0A0E0B0E004C0880F991FAA1FBB1F2C
:101E80004A95D2F7822B80878A89882321F0612F97
:101E9000CE010E94A40E81E0DF91CF911F910F919E
:101EA000089581E090E0A0E0B0E004C0880F991FA1
:101EB000AA1FBB1F0A95D2F7E5CF9F92AF92BF92A0
:101EC000CF92DF92EF92FF920F931F93CF93DF9306
:101ED000FC0189E0689FE001112481E090E0A0E02E
:101EE000B0E06C017D01042E04C0CC0CDD1CEE1CA6
:101EF000FF1C0A94D2F7BC2C7C2D709507E010E0F3
:101F0000041B110904C0880F991FAA1FBB1F0A9543
:101F1000D2F7A82E382F309590E080E0022F10E005
:101F200027E0E22EF12CAC01A285B385AC0FBD1FDA
:101F3000248193806801082E02C0D594C7940A9426
:101F4000E2F7C0FE2AC0222319F0A701481B590B53
:101F5000A40FB51F2C914B2D91104A2D242B2C939F
:101F6000019688309105F9F682859385C80FD91FAF
:101F70008FEF88878289882319F0CF010E94A40EF1
:101F800081E0DF91CF911F910F91FF90EF90DF9053
:101F9000CF90BF90AF909F900895222319F0A70192
:101FA000481B590BA40FB51F2C91472F9110432F9D
:101FB0002423D5CFFC0152813185552321F06317AD
:101FC00030F40C945D0F631710F40C940A0F80E04A
:101FD0000895242F462F477033E0769567953A95FC
:101FE000E1F70C94DA0FFC0152813185552331F071
:101FF000631750F4483041F00C940A0F631720F433
:10200000483011F00C945D0F80E00895CF92DF927C
:10201000EF92FF920F931F93CF93DF93FC01722FE8
:1020200082815185882309F45DC0651708F0BEC020
:10203000283009F4BBC009E0609F7001112482853B
:1020400093858E0D9F1D50E0A22FB0E024812223A6
:10205000B9F127E030E0E901C41BD50BAE012A1B22
:102060003B0B480F591FEA014881820F931FEC0177
:10207000488382859385E701C80FD91F288584810D
:10208000882301F147E050E04A1B5B0B81E090E0C0
:10209000A0E0B0E004C0880F991FAA1FBB1F4A959B
:1020A000D2F7822B88878289811118C081E0DF9165
:1020B000CF911F910F91FF90EF90DF90CF900895F7
:1020C0009D01CFCF81E090E0A0E0B0E004C0880F98
:1020D000991FAA1FBB1F7A95D2F7E3CFCF010E94A9
:1020E000A40EE4CFA42FB0E09381992309F44FC04C
:1020F00027E030E02A1B3B0B91E001C0990F2A95A5
:10210000EAF76517A0F6783091F2D9E06D9FA0014B
:10211000112401E010E020E030E068017901072E91
:1021200004C0CC0CDD1CEE1CFF1C0A94D2F7DC2D85
:10213000CC2DC095A7E0B0E0A71BB10904C0000FEB
:10214000111F221F331FAA95D2F7F02E009530E001
:1021500020E0A285B385A40FB51FA20FB31F8C91F9
:102160007381182F1923D9F0711117C07D2F872B78
:102170008C932F5F3F4F2830310559F78285938527
:10218000480F591F8FEFDA0118968C938CCF91E08E
:1021900001C0990F4A95EAF7B4CF7F2DE8CF7111AE
:1021A00003C07C2F8723E4CF702FFCCF80E07FCF4C
:1021B0008F929F92AF92BF92CF92DF92FF920F9336
:1021C0001F93CF93DF93CDB7DEB728970FB6F89460
:1021D000DEBF0FBECDBF4830510508F0CBC1FA01BC
:1021E000F62E8C01EA50FF4E0C941B27FE104F1167
:1021F0008611C011FB1140128412A41229E0629FC3
:10220000A0011124DC0112968C918823C9F130E0E1
:1022100020E0D8011A96ED91FC911B97E40FF51F71
:10222000E20FF31F808113969C91992339F190E07E
:102230009595879580832F5F3F4F2830310549F76B
:10224000D8011A96ED91FC91B9E0FB9EE00DF11DCD
:1022500011248FEF808781E028960FB6F894DEBFB7
:102260000FBECDBFDF91CF911F910F91FF90DF90F7
:10227000CF90BF90AF909F908F900895880FDACF46
:1022800087E090E0D8011A96ED91FC91E40FF51FDC
:10229000E80FF91F208121830197A0F7D1CFE9E052
:1022A0006E9F90011124DC0112968C918823E1F03D
:1022B00050E040E0D8011A96ED91FC911B97E20F97
:1022C000F31FE40FF51F808113969C91992341F031
:1022D000880F80834F5F5F4F4830510559F7B0CF6B
:1022E00090E095958795F5CF81E090E0D8011A961A
:1022F000ED91FC91E20FF31FE80FF91F4081319738
:10230000408301968830910589F79ACFFC01D280ED
:1023100083898823F9F040E0C801DD20C1F00E94E4
:10232000A30A8983DD20C1F020E0DD24D394D20EFE
:102330004D2D6F2DC8010E9406102D2D2730A9F7B5
:10234000298147E06F2DC8010E94F30F79CF0E94C9
:10235000D00AE7CF1982E6CFF9E0FF9EA001112451
:1023600087E090E0D8011A96ED91FC91E40FF51FFB
:10237000E80FF91F2081220F2083019798F7E0CF03
:10238000FC01D28083898823D9F047E0C801DD2091
:10239000A1F00E94A30A8983DD20A1F028E0DD24BA
:1023A000DA94D20E4D2D6F2DC8010E9406102D2DEE
:1023B000D110F5CF298140E0C5CF0E94D00AEBCFE4
:1023C0001982EACFF9E0FF9EA001112430E020E05D
:1023D000D8011A96ED91FC91E40FF51FE20FF31F5F
:1023E000808190E09595879580832F5F3F4F2830BF
:1023F000310571F7DFCFB9E06B9F60011124FC015B
:1024000082818823C1F0912C812CD8011A96AD903D
:10241000BC90AC0CBD1CA80CB91CF50180810E94BD
:102420001606D5018C93BFEF8B1A9B0AE8E08E1637
:10243000910459F705CF30E020E047E050E0D801A3
:102440001A968D919C918C0D9D1DFC01E20FF31F3E
:10245000B080BA01621B730B860F971FDC018C9151
:102460008083D8011A96ED91FC91EC0DFD1DE60FCD
:10247000F71FB0822F5F3F4F2430310501F7E0CEC8
:10248000B9E06B9F40011124FC018281882329F16E
:1024900030E020E047E050E0D8011A968D919C9101
:1024A000880D991DFC01E20FF31FD080BA01621B59
:1024B000730B860F971FDC018C918083D8011A96CD
:1024C000ED91FC91E80DF91DE60FF71FD0822F5F0B
:1024D0003F4F2430310501F7B3CEB12CA12CF801C8
:1024E000C284D384C80CD91CCA0CDB1CD6018C91C5
:1024F0000E941606F6018083FFEFAF1ABF0A28E09C
:10250000A216B10461F79CCECE0101965C014C018C
:1025100087E0D82E4D2D6F2DC8010E94300BD401BD
:102520008D934D01DA94BFEFDB12F4CFD12CF5017E
:1025300021915F014D2D6F2DC8010E94F30FD3949F
:10254000F8E0DF12F4CF7CCE29E0629FA0011124D5
:1025500090E080E0D8011A96ED91FC91E40FF51F10
:10256000E80FF91F2081209520830196883091057E
:1025700089F766CE80E070CECF92DF92EF92FF9225
:102580000F931F93CF93DF93EC01DD24D394F12CB1
:10259000E12C01E010E0B9E0CB2ECE010E94240E28
:1025A00098010E2C02C0220F331F0A94E2F7E0E0DC
:1025B00090E08985E81798F5EC9DA0011124AA8583
:1025C000BB85A40FB51F18966C9170E0622373232E
:1025D000672B19F16E2F70E08150990B861B970BBA
:1025E000880F991FAC85BD85A80FB91FDC92AA85FD
:1025F000BB85A40FB51FAE0DBF1DFC918985815011
:10260000990B861B970B880F991F4C855D85840F4E
:10261000951FDC011196FC9391E0EF5FCACF9923DF
:1026200019F0CE010E94A60BBFEFEB1AFB0AD39460
:1026300088E0E816F10409F0B0CF80E099E0298540
:10264000821748F4EA85FB85899FE00DF11D11246E
:1026500010868F5FF4CFDF91CF911F910F91FF9084
:10266000EF90DF90CF900895CF93DF93C9E078E0AB
:102670005FEF4617B0F06C9F90011124FC01A2851A
:10268000B385A20FB31FFD01D72F1192DA95E9F799
:10269000DC011A96ED91FC91E20FF31F50876F5FFA
:1026A000E8CFFC012289222321F0DF91CF910C9405
:1026B000BC12DF91CF9108956F927F928F929F927B
:1026C000AF92BF92CF92DF92EF92FF920F931F9340
:1026D000CF93DF93CDB7DEB729970FB6F894DEBF5F
:1026E0000FBECDBF8C01E62EF42E5901461708F41B
:1026F0003DC1DC015296DC90529752961C922830D4
:10270000310508F033C1F901E857FC4E0C941B2742
:10271000DB135714AD14AD149013AD14AD14AD14F8
:10272000642F70E0AE2CB12C4B018A189B0897FEE9
:1027300003C0EFEF8E1A9E0A95948794712C29E0BE
:10274000C22E472D50E0481559050CF0FCC0F80189
:1027500022853385FA01EA0DFB1DCE9EC001CF9E76
:10276000900D1124820F931FFC01DE0111966C2C39
:1027700001900D926A94E1F7FB01E41BF50BCE9EEC
:10278000A001CF9E500D1124F901E40FF51FDC01CB
:102790008C2D01900D928A95E1F7F801A285B38501
:1027A000A40FB51FFE0131968C2D01900D928A95D4
:1027B000E1F77394C6CFDC0153968C91882341F1E5
:1027C000642F660F660F660F695FC8010E94370BA2
:1027D000C82EAE2CB12C8F2D0F2C000C990B8A1506
:1027E0009B0564F150E040E06F2DC8010E94D810B5
:1027F00099249A949F0C47E0692DC8010E94300BE0
:10280000282F40E06F2DC8010E94DA0FF92CE3CF8A
:10281000F801A088B188A114B10471F0642F660F8B
:10282000660F660F695FC8010E94370B482F70E082
:1028300060E08F2DF5010995C12CCBCFD8011E96F4
:10284000ED91FC911F97309749F053968C9181112F
:1028500005C070E060E08E2D0995C82EB50183E0BB
:10286000660F771F8A95E1F74C2DC8010E94E90F8A
:10287000D8015296DC92DD2009F47AC0C8010E948A
:10288000BC128D2D29960FB6F894DEBF0FBECDBFBA
:10289000DF91CF911F910F91FF90EF90DF90CF903C
:1028A000BF90AF909F908F907F906F900895FC01A4
:1028B00083898823A9F1660F660F660FC8010E94FD
:1028C000370BC82E41E050E06E2DC8010E94D81091
:1028D000BB24B394BE0C40E06B2DC8010E94300BAA
:1028E000282F47E06E2DC8010E94DA0FEB2CFB1455
:1028F00048F7D8011E96ED91FC911F97309749F04B
:1029000053968C91811105C061E070E08F2D09957F
:10291000C82EB8E0FB9EB0011124695F7F4FA4CFA1
:10292000A088B188A114B10461F0660F660F660F2C
:10293000C8010E94370B482F61E070E08E2DF50131
:102940000995C12CBFCF44E050E06E2DC8010E9414
:10295000D810E394FE14B8F78BCFA5016E2DC801F3
:102960000E94D810E394FE14C0F782CFD12C89CFF7
:10297000DD24D39486CF8F929F92AF92BF92CF9255
:10298000DF92EF92FF920F931F93CF93DF93EC01AF
:10299000F62E8B859C85442309F4E0C08E010B5CE8
:1029A0001F4F35E0C32ED12C82309105E9F050F055
:1029B0008330910509F441C0049709F4A8C085E06B
:1029C00090E00FC0BE016B5C7F4FCE010E94B10D45
:1029D000811103C086E090E004C01FAA1EAA83E014
:1029E00090E09C878B870DC01DAA8EA58823B1F02F
:1029F000DC86CB868B859C852DA9211116C0059779
:102A000099F7DF91CF911F910F91FF90EF90DF9099
:102A1000CF90BF90AF909F908F900895B801CE0156
:102A20000E946D0D8111E6CFE3CF059751F31FAAE8
:102A30001EAA83E090E09C878B878DA9882329F1CB
:102A400021E02F2530E04AA169A1888199810E9467
:102A50005C13888199816B8D2AA93BA94EA95FA936
:102A6000662301F1BA016F5F7F4F7FAB6EAB240F1E
:102A7000351FF90140814095FF20F1F069A1F8E090
:102A80006F9FB00111240E94E90F2DA98EA99FA963
:102A90002817190609F0B5CF8EA5811115C082E05F
:102AA00090E09FCFBA016F5F7F4F7FAB6EAB240F7B
:102AB000351FF9014081E0CF6AA128E0629FB00193
:102AC0001124695F7F4FDFCF2F853889FF20B1F058
:102AD0008D859E85A901481B590BCA01019629A124
:102AE00058E0259F8019910911249FAB8EAB1816D1
:102AF00019060CF064CF84E090E073CF8AA1E8E07F
:102B00008E9FC00111240796821B930BEECF21E00C
:102B1000262730E04AA169A1888199810E945C132F
:102B2000888199814B8D4195FF2081F069A1F8E062
:102B30006F9FB00111240E94E90F8EA99FA90197F0
:102B40009FAB8EAB892B09F05CCF39CF6AA128E00F
:102B5000629FB0011124695F7F4FEDCF84309105F2
:102B600039F0059709F036CF84E090E09C878B8799
:102B700021E02F2530E04AA169A1888199810E9436
:102B80005C13888199814B8D4195FF2009F445C0E4
:102B900069A138E0639FB00111240E94E90F0AA1E6
:102BA00010E0A9A0B12C6801CA18DB088FEFC81A81
:102BB000D80A23E0CC0CDD1C2A95E1F78C8D9D8D85
:102BC000009721F08C159D0508F46C010F5F1F4FD5
:102BD00083E0000F111F8A95E1F793E0AA0CBB1C5C
:102BE0009A95E1F7FF2021F145017401EA18FB08ED
:102BF00080169106DCF5682D888199810E94370B3B
:102C000090E02B8D222389F02FEF30E0821793077D
:102C100069F5EFEF8E1A9E0AE8CF6AA158E0659F2A
:102C2000B0011124695F7F4FB8CF30E020E0EECFD4
:102C300001501109F12CE12C0A151B05BCF0602F85
:102C4000888199810E94370B90E02B8D222359F0C7
:102C50002FEF30E08217930749F401501109FFEF7D
:102C6000EF1AFF0AE9CF30E020E0F4CFEC14FD04C6
:102C700008F0B0CEC6CECF93DF93EC014AA169A194
:102C8000461720F0888199810E9434138B8D882308
:102C900051F027E030E04AA169A188819981DF9154
:102CA000CF910C945C13DF91CF910895909197058B
:102CB000891740F42AE3829FC001112482559B4F5B
:102CC0000C943B160895CF92DF92EF92FF920F93F0
:102CD0001F93CF93DF93EC010E943B16CF84D888DB
:102CE0007E0185E3E80EF11CB701CE010E94B10D13
:102CF0001FAA1EAA860189899A89081719077CF1DB
:102D00008DA92EA93FA98217130611F081110AC0BF
:102D10001DAA8EA5811104C0B701CE010E946D0DC0
:102D20001FAA1EAA8DA9882331F3888199814EA9F3
:102D30005FA99A012F5F3F4FEAA9FBA9E40FF51F96
:102D40004B8D3FAB2EAB442341F040814095B80101
:102D50000E94E90F01501109CECF4081F8CFDF91D9
:102D6000CF911F910F91FF90EF90DF90CF9008953A
:102D7000EF92FF920F931F93CF93DF93EC01062FF7
:102D80008B859C85442309F445C084309105E0F48B
:102D9000019708F1CE010E943B16CE010E946316F6
:102DA0001BA193E0E92EF12C011103C082E0E82E73
:102DB000F12C1730F0F497014AA169A1888199811B
:102DC0000E945C131F5FF5CF059721F385E090E02B
:102DD0009C878B8718C01CA21BA29AA189A1981757
:102DE00018F0E881F981138A83E090E09C878B8753
:102DF000D1CF8BA19CA125E030E08730910511F166
:102E000001969CA38BA3DF91CF911F910F91FF900F
:102E1000EF90089584309105C0F40197C0F0888147
:102E2000998122E030E0011102C023E030E04AA1A4
:102E300069A10E945C138BA19CA18730910501F7C9
:102E400026E030E03C872B87DBCF059739F41CA2C6
:102E50001BA283E090E09C878B87E1CF86E090E027
:102E6000B7CF0F931F936A30710559F08A019B0108
:102E7000FC014185415060E00E942F0E1F910F918F
:102E8000089521E04130510509F020E0FC01228B3A
:102E90004130510599F71F910F910C94BC122F925C
:102EA0003F924F925F926F927F928F929F92AF92DA
:102EB000BF92CF92DF92EF92FF920F931F93CF9327
:102EC000DF93CDB7DEB72B970FB6F894DEBF0FBEFA
:102ED000CDBF7C014C0124E0820E911C50E040E00B
:102EE0006AE070E0C4010E943117612C512CC701C7
:102EF000845F9E4F9B838A836AE3762E44244394A7
:102F0000AA81BB818C91681608F0F8C1A62CB12C5F
:102F1000F701769CE00DF11D1124DF01AD5BBF4F81
:102F20001C9286A597A58630910509F4E5C1059701
:102F300029F18FB7F8944091650250916602609133
:102F40006702709168028FBF7A9CF0017B9CF00D44
:102F50001124EE0DFF1D86A197A1A0A5B1A5481BC8
:102F6000590B6A0B7B0B82A593A5B0E0A0E0481734
:102F700059076A077B0700F580E0B4C18FB7F89462
:102F800040916502509166026091670270916802FB
:102F90008FBF86A197A1A0A5B1A5481B590B6A0BAD
:102FA0007B0B84A595A5B0E0A0E0481759076A07F8
:102FB0007B0708F0BECFE0CFB5A1B983B111DCCF5C
:102FC0002FB7F8948091650290916602A0916702F4
:102FD000B09168022FBF86A397A3A0A7B1A7DF0176
:102FE000AD5BBF4F4C921A962D903C90211431044A
:102FF00009F46AC19701679C200D311D1124C90194
:1030000083966C0126A537A52115310581F126305F
:10301000310509F459C17A9CD0017B9CB00D112473
:10302000AE0DBF1DBD83AC83DD964C91DD9744236F
:1030300009F407C1D9968D919C918330910509F4CB
:1030400054C108F011C18130910509F419C161E042
:10305000029709F44BC17A9CF0017B9CF00D11247E
:10306000EE0DFF1D26E030E037A726A714C1DF01D3
:10307000A15BBF4F11963C922E921A970C9198E04B
:10308000099F80011124095F1F4F11972C91A8E01F
:103090002A9F0019110911240F5F1F4F1B861A86E2
:1030A0009F012B5A3F4F3D832C83CF018C5A9F4F5A
:1030B0009F838E83DF01A95ABF4FB987A887F1018B
:1030C00061911F01662301F1AC81BD812D913C917D
:1030D00070E0EE81FF814081C6010E94B40C90E057
:1030E0002A853B85280F391F3B872A87892B39F38F
:1030F000D1018C91882319F3E885F9858081280F07
:10310000311D3B872A87DBCF7A9CF0017B9CF00D39
:103110001124EE0DFF1D2A853B8531AB20AB87A91D
:1031200090AD8130910509F45FC028F0029761F1FC
:1031300081E0898343C0DF01AB5BBF4F8C9190E09E
:10314000019653E0880F991F5A95E1F79C01215091
:10315000310933AB22ABAA85BB850A171B0758F48C
:10316000DF01AC5BBF4F8C91B8E08B9FC001112495
:1031700095AB84AB23C02A853B85821B930B95AB13
:1031800084AB31E039831AC0DF01AC5BBF4F8C9157
:10319000A8E08A9FC001112495AB84AB2A853B85AA
:1031A00002171307B8F4DF01AB5BBF4F8C9138E017
:1031B000839FC0011124079693AB82AB7A9CF001E8
:1031C0007B9CF00D1124EE0DFF1D3980342436AAAE
:1031D00045AE21CF0197AA85BB85A80FB91FB3AB18
:1031E000A2ABB1E0B983EACFAF014C5B5F4F2A8558
:1031F0003B850217130770F49F012B5B3F4FD901EA
:103200008C91B8E08B9FC0011124079693AB82ABE1
:10321000DA01A9CFDA018C91B8E08B9FC0011124AB
:103220002A853B85021B130B16950795080F191F5E
:1032300015AB04AB21503109200F311F33AB22AB4A
:10324000A0CFEC81FD8183AD94AD8330910509F46D
:103250004CC050F48130910509F0F9CEC6010E94AE
:103260003B16E6E0F0E011C08430910509F442C05D
:1032700060E0059709F0EFCEC6010E94BB140BC0B9
:10328000C6010E946316E5E0F0E0AC81BD819F9627
:10329000FC93EE939E977A9CF0017B9CF00D112499
:1032A000EE0DFF1D85AD882339F081E026A537A5F9
:1032B0002530310509F480E07A9CF0017B9CF00D0B
:1032C0001124EE0DFF1D85AF7A9CF0017B9CF00D63
:1032D0001124EE0DFF1D81E026A537A5263031050E
:1032E00009F04ACE582A63940BCE60E0C6010E94D2
:1032F000B816D1CF61E0C0CF81E0F4CF41E050E01B
:103300006AE070E0C4010E943117852D2B960FB63C
:10331000F894DEBF0FBECDBFDF91CF911F910F910B
:10332000FF90EF90DF90CF90BF90AF909F908F90E5
:103330007F906F905F904F903F902F900895EF9205
:10334000FF920F931F93CF93DF937C01EB01FC015E
:1033500027A930AD10E000E0AB0160E00E94590BFE
:10336000C7010E944F178111FBCFFE010190002081
:10337000E9F7CF0101978C1B9D0BDF91CF911F9136
:103380000F91FF90EF9008958091390390913A0347
:10339000A0913B03B0913C03892B8A2B8B2B99F096
:1033A0008091390390913A03A0913B03B0913C0383
:1033B0000197A109B1098093390390933A03A0932F
:1033C0003B03B0933C038091000190910101A091D7
:1033D0000201B0910301892B8A2B8B2B99F08091EC
:1033E000000190910101A0910201B09103010197A8
:1033F000A109B1098093000190930101A0930201FA
:10340000B09303018091000190910101A09102010C
:10341000B0910301892B8A2B8B2B51F580916D0381
:10342000813031F5109266031092C8026EE373E0AA
:103430008CE992E00E943F0B65EC72E088E992E033
:103440000E943F0B8BE894E00E944F1780E09AE3C4
:1034500020919705821748F4899FF0011124E255C5
:10346000FB4F148613868F5FF3CF82E080936D034A
:1034700008950F931F93CF93DF938150990B28E208
:10348000289F8001299F100D1124CAE0D3E000502D
:103490001340C8018C0F9D1F0E94E52689936AE0A6
:1034A00070E080E090E00E94210883E0C233D807FA
:1034B00081F7DF91CF911F910F9108951F920F9285
:1034C0000FB60F9211242F933F934F935F936F93F7
:1034D0007F938F939F93AF93BF93EF93FF9384EB6F
:1034E00093E00E94F006FF91EF91BF91AF919F9101
:1034F0008F917F916F915F914F913F912F910F909D
:103500000FBE0F901F9018951F920F920FB60F923B
:1035100011242F938F939F93EF93FF93E091C40314
:10352000F091C5038081E091CA03F091CB0382FD45
:103530001BC090818091CD038F5F8F732091CE034C
:10354000821741F0E091CD03F0E0EC54FC4F958FF1
:103550008093CD03FF91EF919F918F912F910F90C9
:103560000FBE0F901F9018958081F4CF1F920F927D
:103570000FB60F9211242F933F938F939F93AF9386
:10358000BF938091650290916602A0916702B0910D
:1035900068023091640223E0230F2D3758F501961D
:1035A000A11DB11D20936402809365029093660271
:1035B000A0936702B09368028091690290916A02B9
:1035C000A0916B02B0916C020196A11DB11D809378
:1035D000690290936A02A0936B02B0936C02BF9150
:1035E000AF919F918F913F912F910F900FBE0F90B0
:1035F0001F90189526E8230F0296A11DB11DD2CF6A
:103600001F920F920FB60F9211242F933F934F9357
:103610005F936F937F938F939F93AF93BF93EF933A
:10362000FF93E0916804F0916904309749F0A68512
:10363000B7858585968D91FF14C09C918923A1F44F
:10364000FF91EF91BF91AF919F918F917F916F917A
:103650005F914F913F912F910F900FBE0F901F9050
:1036600018959C91892361F7A389B4899C918589D8
:10367000809589238C93868997890197F1F7608DCE
:10368000718DA685B785558538E020E0CB0101977F
:10369000F1F7822F90E095958795282F4C9145233F
:1036A00009F02068315091F7868D81FD2095809139
:1036B0006E0290E001968F73992730916D02381752
:1036C00099F0A0916E02B0E0AC5DBD4F2C93809359
:1036D0006E02828D938D0197F1F7A389B4898C9145
:1036E0009589892B8C93ACCF868D8160868FF1CFA5
:1036F0001F920F920FB60F9211242F933F934F9367
:103700005F936F937F938F939F93AF93BF93EF9349
:10371000FF938091B900887F803609F44AC0F0F5A4
:10372000883209F4A7C018F5803109F49BC0B8F4B9
:10373000882309F4F9C0883009F494C0FF91EF910F
:10374000BF91AF919F918F917F916F915F914F91B9
:103750003F912F910F900FBE0F901F9018958831B9
:1037600009F488C0803251F78093910314C08034EB
:1037700009F49DC040F48033B9F38833F9F680939F
:10378000910385ECB0C0803509F485C0883509F413
:1037900096C0883499F60E940109D0CF883909F47F
:1037A0008CC038F5883729F050F4883611F080370E
:1037B00029F683E0809357041092230257C088387B
:1037C00009F47BC0803919F0803809F0B7CF8091B7
:1037D0002302803208F071C0E091230281E08E0F55
:1037E000809323028091BB00F0E0ED5FFD4F80836A
:1037F0003DC0803B39F0E0F4803A09F479C0883A62
:1038000009F09CCF84E0809357041092020210923A
:103810000102E0915304F091540409958091010252
:1038200081110FC081E0809301021092E10109C073
:10383000803C09F4A6CF883C09F4A3CF883B09F06B
:103840007DCFE091020281E08E0F80930202F0E0D2
:10385000EF51FE4F80818093BB00909102028091D6
:10386000010229C080916E038093BB0085EC809398
:10387000BC0064CF9091900380918F03981758F506
:10388000E091900381E08E0F80939003F0E0E15986
:10389000FC4F8081E9CFE091900381E08E0F80930F
:1038A00090038091BB00F0E0E159FC4F8083909140
:1038B000900380918F039817C8F285E8D8CFE091E4
:1038C000900381E08E0F809390038091BB00F0E025
:1038D000E159FC4F80838091560481115CCF81E0D7
:1038E0008093550484EA8093BC001092570426CF3D
:1038F00085EC8093BC0010925704809123028032A3
:1039000030F4E0912302F0E0ED5FFD4F1082609112
:10391000230270E0E0915104F091520483E092E0C0
:103920000995109223020ACF1092910334CF1F926F
:103930000F920FB60F9211242F933F934F935F93E3
:103940006F937F938F939F93AF93BF93EF93FF9367
:10395000E0910401F09105010995FF91EF91BF916C
:10396000AF919F918F917F916F915F914F913F9117
:103970002F910F900FBE0F901F9018950F931F93CC
:10398000CF93DF9380E791E090936B0480936A0478
:1039900080916804909169048A56944071F4E09192
:1039A0007D04F0917E04908180917F04809589232D
:1039B0008083109269041092680482E891E09093E9
:1039C0008C0480938B04C6E9D5E0EA978FA598A96B
:1039D000009739F0FC01048115810E94D127C801AC
:1039E000F7CF8AA99BA9009711F00E94D127F4E094
:1039F000CE3ADF0751F780919704882399F09FB75B
:103A0000F89480918A04882319F0815080938A0465
:103A100080918A04811105C08CB58F7B8CBD10927A
:103A200089049FBF8091990490919A040E94D127A4
:103A300080919B0490919C04DF91CF911F910F91F5
:103A40000C94D1271092B7031092B60388EE93E03E
:103A5000A0E0B0E08093B8039093B903A093BA03B9
:103A6000B093BB032CE431E03093B5032093B4034F
:103A700025EC30E03093C1032093C00324EC30E008
:103A80003093C3032093C20320EC30E03093C5038E
:103A90002093C40321EC30E03093C7032093C60386
:103AA00022EC30E03093C9032093C80326EC30E0C9
:103AB0003093CB032093CA031092CD031092CE0310
:103AC0001092CF031092D00310925F0410925E0404
:103AD0008093600490936104A0936204B0936304A4
:103AE0008EE591E090935D0480935C0410928E04C7
:103AF00010928D0482E891E090938C0480938B0463
:103B000010929404109295048AE08093960481E0C8
:103B10008093970498E2909398048093A10421E005
:103B200030E03093900420938F048093910410929E
:103B3000920410929304EEEAF4E086E090E061E0F3
:103B40001282138214821582168294878387158EBF
:103B5000148E168E10AA17A611AA13AA12AA64AB65
:103B600011AE10AEFA9625E0E639F20749F788E281
:103B70008093960510926D0410926C0488EE93E089
:103B8000A0E0B0E080936E0490936F04A093700463
:103B9000B093710480E791E090936B0480936A0482
:103BA0001092810410928004109283041092820477
:103BB0001092850410928404109287041092860457
:103BC000809188048E7F8D7F809388048695817094
:103BD000682783E00E947F0761E083E00E94CB07B3
:103BE000E4E0FBE0E491E0937A04E0EFFAE0E491B2
:103BF000F0E0EE0FFF1FED51F54F859194919093FA
:103C00007C0480937B0460E084E00E94CB07809179
:103C1000880481FD04C061E084E00E947F0784E0A5
:103C200080937604E5E0FBE0E491E0937704E1EF34
:103C3000FAE0E491F0E0EE0FFF1FE752F54F8591B7
:103C40009491909379048093780410925B0410927D
:103C50005A0410925904109258041092570481E0AB
:103C6000809356041092550461E082E10E947F0720
:103C700061E083E10E947F078091B9008E7F80938D
:103C8000B9008091B9008D7F8093B90088E480935A
:103C9000B80085E48093BC0087EB95E090935404D2
:103CA0008093530488EB95E09093520480935104E1
:103CB0000895CF93DF93CDB7DEB7AE970FB6F894E4
:103CC000DEBF0FBECDBF789484B5826084BD84B55D
:103CD000816084BD85B5826085BD85B5816085BD07
:103CE00080916E00816080936E00109281008091BF
:103CF0008100826080938100809181008160809347
:103D00008100809180008160809380008091B1006B
:103D100084608093B1008091B00081608093B00096
:103D200080917A00846080937A0080917A0082602A
:103D300080937A0080917A00816080937A008091EC
:103D40007A00806880937A001092C10080E18093AD
:103D500081001092800080E49FE19093870080931F
:103D6000860081E18093810084EC99E190930501C4
:103D70008093040181E080936F00E091C403F0918F
:103D8000C50382E08083E091C003F091C1031082FB
:103D9000E091C203F091C3038FEC80831092CC03B7
:103DA000E091C803F091C90386E28083E091C603E5
:103DB000F091C703808180618083E091C603F09118
:103DC000C703808188608083E091C603F091C703B8
:103DD000808180688083E091C603F091C703808171
:103DE0008F7D808361E082E00E94CB0760E082E00B
:103DF0000E947F076EE170E080E090E00E94210861
:103E0000109285041092840410928304109282040C
:103E100010928104109280048DE991E090938704C0
:103E20008093860490917604963108F047C02DEB7C
:103E300030E030938104209380042BE931E030930B
:103E40008304209382042CE231E030938504209394
:103E500084042091680084E0983048F031E09E307E
:103E600008F430E081E001C0880F3A95EAF7822B30
:103E7000809368002DE630E0983050F02BE630E07B
:103E80009E3030F02CE630E0963110F030E020E04B
:103E900030937E0420937D04292F30E0983008F081
:103EA000F8C081E001C0880F9A95EAF780937F04FB
:103EB00080918604909187040197F1F780918404A2
:103EC00090918504892B49F1E0916804F09169048F
:103ED00024E0EA36F20709F1309739F0A389B48972
:103EE0009C918589809589238C93809188048E7F0D
:103EF0008093880410926E0210926D028AE694E01C
:103F00009093690480936804E0917D04F0917E04AD
:103F1000808190917F04892B8083809197048823EE
:103F200009F4C4C01FB7F89480918A04811127C096
:103F3000E7EFFAE08491EBE0FBE09491E82FF0E00A
:103F4000EE0FFF1FE458FF4FA591B491EC91E923C8
:103F500021F461E08AE00E947F0761E08AE00E942C
:103F6000CB078CB580618CBD8CB580648CBD61E065
:103F70008DE00E94CB0761E08BE00E94CB0780912F
:103F80008A048F5F80938A041FBF61E0809196044A
:103F90000E94CB0761E0809196040E947F071092F7
:103FA0009E0410929D041092A00410929F04109100
:103FB000980439E0139FC00111240E943527909383
:103FC0009A0480939904812F90E0880F991F0E9492
:103FD000352790939C0480939B048091A304909137
:103FE000A4048658904051F086E890E09093A40491
:103FF0008093A3048FE894E00E94FC0950E040E025
:1040000063E070E08FE894E00E94311747E050E0F1
:1040100061E070E08FE894E00E94311742E050E0E8
:1040200062E070E08FE894E00E94311750E040E0D9
:1040300064E070E08FE894E00E94311740919804AA
:10404000415060E08FE894E00E94341350E040E07B
:1040500070E060E08FE894E00E94311784E0809384
:10406000970510E00AE3AFE8EA2EA4E0FA2E80916B
:104070009705181730F5019FC0011124FC01E55781
:10408000FB4FF4A2E3A282559B4F0E943A0C1F5FA4
:10409000EECF9E3040F42850310981E001C0880FF6
:1040A0002A95EAF703CF2E503109F7CF61E08091CE
:1040B00094040E94CB0761E0809195040E94CB0795
:1040C00064CF813051F4909196058FEF890F891755
:1040D00020F41092CF048093D00480E09AE32AE089
:1040E00030E040919705841748F4899FF00111242E
:1040F000E255FB4F308727838F5FF3CF8091B50464
:104100009091B6044AE0489F9001499F300D1124D8
:1041100080E09AE340919705841748F4899FF00165
:104120001124E255FB4F328721878F5FF3CF10E0D8
:10413000FAE3FF2E01E080919705181768F4F19ECD
:10414000C0011124FC01EE51FB4F008382559B4FAF
:104150000E943A0C1F5FEFCF80E09AE32091970511
:10416000821748F4899FF0011124E255FB4F158E08
:10417000148E8F5FF3CF80E02AE390919705891723
:1041800070F0EBE8F4E080E021E030E0891781F0A6
:1041900032AF21AF14AE13AE8F5FFA96F7CF829F86
:1041A000F0011124E255FB4F158A148A8F5FE5CF89
:1041B0001092D9041092D80480E09AE320919705D8
:1041C000821740F4899FF0011124E255FB4F138EB2
:1041D0008F5FF4CFF12C7AE3E72EE2E0DE2E8091C0
:1041E0009705F816D0F4EF9CF0011124E557FB4F2A
:1041F000DF01AE5BBF4FDC9283A194A113964C917B
:10420000EC5BFF4F6081461730F002E010E022E0E7
:1042100030E00E942F0EF394E2CF8091A30490919E
:10422000A404892B51F086E890E09093A404809335
:10423000A3048FE894E00E94FC09909196059E30BB
:1042400008F429C580919705882309F41EC51092AA
:10425000CF042DE02093D004923208F419C58230A7
:1042600030F024E12093090521E220930A058330F0
:1042700030F02EE02093430523E12093440598324B
:1042800008F409C5843008F406C582E280937D05F0
:1042900087E280937E05FFC439E9831211C041E0B3
:1042A000B4120EC058E295120BC0802F810F875DAB
:1042B000A81206C0B0926C0300936A0310936B03BC
:1042C00080916C03882309F449C030916A03AAE104
:1042D000B1E090E080E0FC012C910196129632133F
:1042E000FACFEE0FFF1FE65EFE4FE18110916B03E8
:1042F000E03108F06EC0E093690380916803843078
:1043000029F416FD03C081E080936803809168035F
:10431000843019F416FD509268038091680381304F
:1043200019F416FD5092680380916803823041F4BD
:1043300016FD06C081E08093670383E080936803E5
:1043400080916803833019F416FD5092680314FFBE
:1043500050C081E080933D0310926C03209168036C
:1043600080913D03223009F052C0813009F049C0EC
:1043700088E18093C50280E28093C6028093C702E1
:1043800080916903853008F48CC19BEF980F9530BC
:1043900008F4C2C19BE090933E0395E190933F03E4
:1043A0002CE020934003909341032DE0209342039F
:1043B000909343039EE090934403109245038B3007
:1043C00009F4DBC108F0A1C18A3009F03FC18FE0D8
:1043D000C3C184E080936803E051FF0BEE0FFF1F21
:1043E000E45FFE4F608171818EE393E00E946A2852
:1043F000AECF15FF03C050923D03AECF10923D03E8
:10440000ABCF823011F489E1B4CF87E1B2CF8130F4
:1044100099F483E18093C502822F8D7F813009F06A
:104420002FC1809169038A3068F490E29093C602AC
:10443000805D8093C7020FC0823011F484E1EACF1F
:1044400087E1E8CF6AE00E94FB26805D8093C60288
:10445000905D9093C702233009F493C1243009F48E
:10446000F5C0213009F0ADC18091390390913A0334
:10447000A0913B03B0913C03892B8A2B8B2B09F035
:10448000E5C02093920388E68093B3031092590409
:104490001092580460E08CE594E00E94810981E06C
:1044A0000E94B905811199C0909157049111FCCFD8
:1044B00091E090935704909356042FEF209391032B
:1044C0001092900326E020938F0390936E039091B7
:1044D0006E03906D90936E0390915504913009F0A6
:1044E000D4C01092550490916E039093BB009091AC
:1044F000BC0093FDF8CF95EC9093BC0090915704CD
:104500009130E1F390919003973008F0C0C0909102
:104510009003AFE6B3E0E7E7F2E08913BAC0109288
:104520005B0480935A04873008F457C08CE594E00C
:104530000E944109982F929597701AE08F70919F71
:10454000800D1124809332038CE594E00E94410990
:10455000982F929597708F70919F800D1124809362
:1045600033038CE594E00E944109982F9295937053
:104570008F70919F800D1124809334038CE594E01B
:104580000E9441098770809335038CE594E00E9476
:10459000410984FB992790F98F70919F800D112418
:1045A000809336038CE594E00E944109982F929500
:1045B0009F708F70919F800D1124809337038CE53D
:1045C00094E00E944109982F9F70925E82958F70AF
:1045D000819F900D11249093380388EE93E0A0E022
:1045E000B0E08093390390933A03A0933B03B093D8
:1045F0003C0384E580933E0389E680933F038DE688
:104600008093400385E6809341032AE3209342038D
:10461000809134033AE0632F0E94FB26805D8093F3
:104620004303905D90934403809133030E94FB26E3
:10463000805D80934603905D9093470310924803FA
:1046400080914503803249F5209345038AE694E042
:104650000E94C808892B09F4B8C010E08AE694E0EB
:104660000E94C808892B09F4B0C08AE694E00E9431
:10467000E008E12FF0E0E653FD4F80831F5FEECFAF
:104680008BE18093C60280E2D4CE95EE35CF97E0E1
:1046900040CF2D9121938F5F40CF80E280934503DF
:1046A000D5CF9AE190933E0396E190933F0321E3A7
:1046B000209340039093410322E32093420390937D
:1046C000430323E3209344039093450394E390939F
:1046D000460310924703823081F030F4813009F0B4
:1046E000B5CF50924003B2CF833059F0843009F0F7
:1046F000ADCF85E080934603A9CF83E0809342034A
:10470000A5CF84E080934403A1CF8C30C1F18D30DC
:1047100009F09CCF82E1F6CF95E390933E0396E1BA
:1047200090933F0326E3209340039093410327E3B4
:10473000209342039093430328E3209344039093F0
:10474000450399E39093460310924703873089F01D
:1047500030F4863051F086E080933E0377CF883086
:1047600051F08930C1F78AE0C5CF87E080934003DC
:104770006DCF88E0C3CF89E0C5CF80E1F7CF81E17D
:10478000BDCF80916703882309F460CF0EE313E067
:10479000F80180E2819393E0E636F907D9F780913A
:1047A00069030E94391AEAE0F3E08191D8018D9300
:1047B0008D0122E333E02E173F07B9F7109267030C
:1047C00045CF81E08093680341CF6CE871E08AECCB
:1047D00092E00E947128892B09F4D5C09091CF02F4
:1047E0008AE05091D0025051989F500D1124909121
:1047F000D1024091D2024051989F400D11249091D6
:10480000D3023091D4023051989F300D1124809101
:10481000D5028053883008F075C18093C902809119
:10482000D6021AE02091D7022051819F200D112439
:104830008091D8029091D9029051819F900D1124BE
:104840006091DA028091DB028051619F800D11241A
:104850006091C90250933403409333033093320381
:104860006093350320933603909337038093380386
:1048700001E00093920388E68093B30310925904F9
:104880001092580460E08CE594E00E94810960E891
:104890008CE594E00E94810980913303612F0E948E
:1048A000FB268295807F682F690F8CE594E00E943B
:1048B000810980913403612F0E94FB268295807FBD
:1048C000682F690F8CE594E00E948109809135037F
:1048D000612F0E94FB268295807F682F690F8CE5EF
:1048E00094E00E94810980913603612F0E94FB268B
:1048F0008295807F682F690F8CE594E00E94810982
:1049000080913703612F0E94FB268295807F682F5C
:10491000690F8CE594E00E948109809138038E51E3
:10492000612F0E94FB268295807F682F690F8CE59E
:1049300094E00E94810981E00E94B90581111BC0A9
:1049400000939203109259041092580460E08CE591
:1049500094E00E94810980913203612F0E94FB261E
:104960008295807F682F690F8CE594E00E94810911
:1049700081E00E94B905EAECF2E011924AE053E0CE
:104980004E175F07D1F762E971E08AEC92E00E946E
:104990007128892B09F447C08091CF024090D00242
:1049A00050EF450E9AE0899F400C1124E2EDF2E0B1
:1049B000DE0111964D018191D4018D934D012BA5FE
:1049C0003CA52A173B07B9F7AE014F5F5F4F5A016D
:1049D0000DA51EA558E2459E000D111D112408527B
:1049E0001109D5016D915D01C8018A0F9B1F0E94BD
:1049F000ED266AE070E080E090E00E9421088A14D1
:104A00009B0479F764E170E080E090E00E94210867
:104A1000842D0E94391AEAECF2E011922AE033E088
:104A20002E173F07D1F780916D03823009F0D5C072
:104A3000109266031092C8026EE373E08CE992E074
:104A40000E943F0B65EC72E088E992E00E943F0B08
:104A50008BE894E00E944F1790916803809197052E
:104A6000933009F0C7C08823C1F02091B904309178
:104A7000BA042630310549F0823038F08091F304D1
:104A80009091F404069709F04AC0D092C504C092F0
:104A9000C404D092C704C092C60480E00E94561697
:104AA00080919705823040F0D092FF04C092FE04BE
:104AB000D0920105C092000581E00E94561660E088
:104AC0008BE894E00E944A0B61E08BE894E00E943E
:104AD0004A0B81E09AE3209197058217A8F4409150
:104AE000B1045091B2046091B3047091B404899FF1
:104AF000F0011124E255FB4F438354836583768391
:104B00008F5FE9CF81E089CE80916803833029F5FA
:104B10008091970281111CC081E08093970280915F
:104B20009705833008F44FC030923905209238053C
:104B300010923B0510923A05833009F444C030923C
:104B400073052092720510927505109274053BC092
:104B50001092970281E0809368038091970590916D
:104B600068039230F1F690913D03913009F063C0F3
:104B70008330B8F020912D0530912E052630310577
:104B800041F0833031F08091670590916805069778
:104B900021F5F0923905E0923805F0923B05E0925C
:104BA0003A0582E00E94561680919705843040F0C5
:104BB000F0927305E0927205F0927505E09274052B
:104BC00083E00E94561662E08BE894E00E944A0B54
:104BD00063E08BE894E00E944A0B40E050E0452BF4
:104BE00009F4AFC00E94DC06882309F49FC00E942C
:104BF000000099C0882391F03092C5042092C4042B
:104C00001092C7041092C604823040F03092FF0424
:104C10002092FE04109201051092000560E08BE8DE
:104C200094E00E944A0B61E08BE894E00E944A0BFA
:104C30001092970292CF8330B8F020912D053091D9
:104C40002E052630310541F0833031F08091670523
:104C500090916805069709F67092390560923805BB
:104C600070923B0560923A0582E00E945616809150
:104C70009705843008F4A4CF709273056092720592
:104C800070927505609274059BCF923208F09BC0BC
:104C9000943108F0ECCA80E00E94580C81E00E9438
:104CA000580C82E00E94580C83E00E94580C01E0EE
:104CB00010E021E030E04EE353E060E08BE894E068
:104CC0000E94590B21E030E04CE952E061E08BE8B2
:104CD00094E00E94590B0EE010E021E030E045EC3A
:104CE00052E062E08BE894E00E94590B21E030E052
:104CF00048E952E063E08BE894E00E94590B81E0C0
:104D000080936D03CE0101969AA789A7DE0199963B
:104D1000BCA7ABA789E090E0FC0129A53AA5E21B5E
:104D2000F30BFEA7EDA722242394312C22E0522E70
:104D300033E0632E712C42E0E42EF12C54E0C52EBA
:104D4000D12C80916D03823009F0BACA84EB93E0D4
:104D50000E94D00606970CF4B3CA84EB93E00E943D
:104D6000AE06882E80936F0284EB93E00E94AE061D
:104D7000B82E8093700284EB93E00E94AE06982ECA
:104D80008093710284EB93E00E94AE06082F80931B
:104D9000720284EB93E00E94AE06182F8093730298
:104DA00084EB93E00E94AE06A82E8093740284EBFD
:104DB00093E00E94D006892B09F46ECA84EB93E03D
:104DC0000E94AE06F4CF80E05ACAF999FECF92BD98
:104DD00081BDF89A992780B50895262FF999FECFBD
:104DE0001FBA92BD81BD20BD0FB6F894FA9AF99A08
:104DF0000FBE01960895991B79E004C0991F96177C
:104E000008F0961B881F7A95C9F78095089597FB3F
:104E1000072E16F4009407D077FD09D00E942127B1
:104E200007FC05D03EF4909581959F4F08957095AD
:104E300061957F4F0895EE0FFF1F0590F491E02DCF
:104E40000994AA1BBB1B51E107C0AA1FBB1FA617D1
:104E5000B70710F0A61BB70B881F991F5A95A9F723
:104E600080959095BC01CD0108950F931F93CF932A
:104E7000DF938230910510F482E090E0E0919A0592
:104E8000F0919B0530E020E0B0E0A0E0309799F48D
:104E90002115310509F44AC0281B390B243031058E
:104EA000D8F58A819B816115710589F1FB01938396
:104EB0008283FE0111C04081518102811381481714
:104EC0005907E0F04817590799F4109761F01296C6
:104ED0000C93129713961C933296CF01DF91CF91CA
:104EE0001F910F91089500939A0510939B05F4CF9D
:104EF0002115310551F04217530738F0A901DB01A4
:104F00009A01BD01DF01F801C1CFEF01F9CF909304
:104F10009B0580939A05CDCFFE01E20FF31F81938D
:104F200091932250310939832883D7CF2091980556
:104F300030919905232B41F420910801309109010A
:104F4000309399052093980520910601309107012F
:104F50002115310541F42DB73EB740910A0150911A
:104F60000B01241B350BE0919805F0919905E21790
:104F7000F307A0F42E1B3F0B2817390778F0AC017C
:104F80004E5F5F4F2417350748F04E0F5F1F509359
:104F9000990540939805819391939FCFF0E0E0E0CD
:104FA0009CCFCF93DF930097E9F0FC0132971382F7
:104FB0001282A0919A05B0919B05ED0130E020E0AE
:104FC0001097A1F420813181820F931F20919805C1
:104FD000309199052817390709F061C0F0939905B8
:104FE000E0939805DF91CF910895EA01CE17DF078E
:104FF000E8F54A815B819E0141155105B1F7E90150
:10500000FB83EA8349915991C40FD51FEC17FD0723
:1050100061F4808191810296840F951FE901998343
:105020008883828193819B838A83F0E0E0E01296FB
:105030008D919C9113970097B9F52D913C91119703
:10504000CD010296820F931F20919805309199050A
:105050002817390739F6309751F510929B051092B1
:105060009A05B0939905A0939805BCCFD383C283CA
:1050700040815181840F951FC817D90761F44E5F95
:105080005F4F88819981480F591F518340838A81DE
:105090009B81938382832115310509F0B0CFF09372
:1050A0009B05E0939A059ECFFD01DC01C0CF1382E2
:1050B0001282D7CFFB01DC0102C001900D9241505A
:1050C0005040D8F70895DC0101C06D934150504025
:1050D000E0F70895FB01DC0101900D920020E1F75B
:1050E0000895FB0151915523A9F0BF01DC014D91B9
:1050F00045174111E1F759F4CD010190002049F025
:105100004D9140154111C9F3FB014111EFCF81E0F1
:1051100090E00197089515E0CCE8D5E004C0FE01C9
:105120000E941B272196CD38D107C9F7F894FFCFED
:10513000C80000003E0B00009C0580009801A501FE
:10514000B401BA01C101C701D1013F0006015B02F0
:105150004F0366046D057D0607077F086F09BF0AC8
:10516000860BDB0CCF0DE60EED0F491064117612A5
:10517000771379143B154A160000000012077206D7
:105180009F065F07D006AE06C20600000000810938
:105190005409C9096B086B06410932090000000077
:1051A0006C087206C9096B08C808E00853080000BB
:1051B0000000B009810CC909C8099F1954494D451F
:1051C0003A00464C4F4F5200536166657479204453
:1051D00072697665004F7574214F6621536572764A
:1051E0006963650052455345540052455343554544
:1051F000004661756C74004F766572204C6F616477
:105200000046697265214F7065726174696F6E0046
:107E0000112484B714BE81FFF0D085E080938100F7
:107E100082E08093C00088E18093C10086E0809377
:107E2000C20080E18093C4008EE0C9D0259A86E02C
:107E300020E33CEF91E0309385002093840096BBD3
:107E4000B09BFECF1D9AA8958150A9F7CC24DD24C4
:107E500088248394B5E0AB2EA1E19A2EF3E0BF2EE7
:107E6000A2D0813461F49FD0082FAFD0023811F036
:107E7000013811F484E001C083E08DD089C08234E0
:107E800011F484E103C0853419F485E0A6D080C0E4
:107E9000853579F488D0E82EFF2485D0082F10E0AE
:107EA000102F00270E291F29000F111F8ED06801E7
:107EB0006FC0863521F484E090D080E0DECF843638
:107EC00009F040C070D06FD0082F6DD080E0C81688
:107ED00080E7D80618F4F601B7BEE895C0E0D1E017
:107EE00062D089930C17E1F7F0E0CF16F0E7DF06D8
:107EF00018F0F601B7BEE89568D007B600FCFDCFD4
:107F0000A601A0E0B1E02C9130E011968C91119780
:107F100090E0982F8827822B932B1296FA010C0160
:107F200087BEE89511244E5F5F4FF1E0A038BF0790
:107F300051F7F601A7BEE89507B600FCFDCF97BE46
:107F4000E89526C08437B1F42ED02DD0F82E2BD052
:107F50003CD0F601EF2C8F010F5F1F4F84911BD097
:107F6000EA94F801C1F70894C11CD11CFA94CF0C13
:107F7000D11C0EC0853739F428D08EE10CD085E9AC
:107F80000AD08FE07ACF813511F488E018D01DD067
:107F900080E101D065CF982F8091C00085FFFCCF94
:107FA0009093C60008958091C00087FFFCCF809118
:107FB000C00084FD01C0A8958091C6000895E0E648
:107FC000F0E098E1908380830895EDDF803219F02E
:107FD00088E0F5DFFFCF84E1DECF1F93182FE3DFCA
:107FE0001150E9F7F2DF1F91089580E0E8DFEE27F6
:047FF000FF270994CA
:027FFE00040479
:0400000300007E007B
:00000001FF
